:020000040800F2
:1000000060060020B1010008B5020008AD0200083A
:10001000B10200086B02000899040008000000000B
:10002000000000000000000000000000E9020008DD
:100030006F02000800000000B7020008D5030008A6
:10004000CB010008CB010008CB010008CB01000860
:10005000CB010008CB010008CB010008CB01000850
:10006000CB010008CB010008CB010008CB01000840
:10007000CB010008CB010008CB010008CB01000830
:10008000CB010008CB010008CB010008CB01000820
:10009000CB010008CB010008CB010008CB01000810
:1000A000CB010008CB010008CB010008CB01000800
:1000B000CB010008CB010008CB010008CB010008F0
:1000C000CB010008CB010008CB010008CB010008E0
:1000D000CB010008CB010008CB010008CB010008D0
:1000E000CB010008CB010008CB010008CB010008C0
:1000F000CB010008CB010008CB010008CB010008B0
:10010000CB010008CB010008CB010008CB0100089F
:10011000CB010008CB010008CB010008CB0100088F
:10012000CB010008CB010008CB010008CB0100087F
:1001300000F002F800F02CF80AA090E8000C8244CD
:100140008344AAF10107DA4501D100F021F8AFF2AA
:10015000090EBAE80F0013F0010F18BFFB1A43F0A5
:1001600001031847700300008003000000230024EF
:1001700000250026103A28BF78C1FBD8520728BFB7
:1001800030C148BF0B6070471FB51FBD10B510BD13
:1001900000F031F81146FFF7F7FF00F07FF900F0AB
:1001A0004FF803B4FFF7F2FF03BC00F057F800006C
:1001B0000948804709480047FEE7FEE7FEE7FEE7FB
:1001C000FEE7FEE7FEE7FEE7FEE7FEE70448054937
:1001D000054A064B70470000390400083101000849
:1001E0006000002060060020600200206002002005
:1001F000704770477047754600F02CF8AE46050012
:100200006946534620F00700854618B020B5FFF731
:10021000DDFFBDE820404FF000064FF000074FF033
:1002200000084FF0000B21F00701AC46ACE8C00914
:10023000ACE8C009ACE8C009ACE8C0098D4670471D
:1002400010B50446AFF300802046BDE81040FFF72C
:10025000A8BF000000487047000000200149182096
:10026000ABBEFEE726000200704700BFFEE7704706
:100270000348806940F01000014988617047000020
:100280000010024000B5FFF7F3FF0648006806497A
:100290000840044908600846006840F48850086037
:1002A00000BD000000100140FF00FF0F00BFFEE78F
:1002B00000BFFEE7704770470A48006840F480308E
:1002C00008490860002048600846406840F0010086
:1002D00048604FF0E020006940F004004FF0E0215A
:1002E0000861704700100240704710B500F002F836
:1002F00010BD00000CB5002001900090334800684C
:1003000040F480303149086000BF3048006800F494
:10031000003000900198401C0190009818B9019895
:10032000B0F5A06FF1D12948006800F4003010B199
:100330000120009001E0002000900098012843D1A6
:100340002348006840F01000214908600846006812
:1003500020F0070008600846006840F002000860CE
:100360001A4840681949486008464068486008468D
:10037000406840F4806048600846406820F47C1083
:1003800048600846406840F4E81048600846006845
:1003900040F08070086000BF0C48006800F00070FA
:1003A0000028F9D00948406820F003000749486058
:1003B0000846406840F00200486000BF03484068BB
:1003C00000F00C000828F9D10CBD0000001002401C
:1003D00000200240704710B5044604E04FF47A70E4
:1003E00000F004F8641E002CF8D110BD0146012273
:1003F000C2EBC1024FF0E0235A611A4692699A613A
:100400001A46126942F001021A6100BF4FF0E02261
:10041000106900F001021AB100F48032002AF5D010
:100420004FF0E022126922F001024FF0E0231A613E
:100430001A4692699A61704710B51348006840F0F7
:1004400001001149086008464068104908400E49FB
:100450004860084600680E4908400B490860084695
:10046000006820F4802008600846406820F4FE0000
:1004700048604FF41F008860FFF737FF4FF00060BF
:100480000449086010BD0000001002400000FFF8A1
:10049000FFFFF6FE08ED00E000BFFEE7FFF70CFFF0
:1004A000FFF7F0FE13E04FF4FA70FFF794FF0848EF
:1004B000C06880F004000649C8604FF4FA70FFF786
:1004C0008AFF0348C06880F008000149C860EAE775
:1004D00000100140E4040008000000206006000055
:0404E0006C010008A3
:0400000508000131BD
:00000001FF
