:020000040800F2
:1000000060060020B101000891050008790400088D
:100010008D0500086B020008E909000800000000D7
:10002000000000000000000000000000E5050008DE
:100030001B0400080000000093050008D10600081A
:10004000CB010008CB010008CB010008CB01000860
:10005000CB010008CB010008CB010008CB01000850
:10006000CB010008CB010008CB010008CB01000840
:10007000CB010008CB010008CB010008CB01000830
:10008000CB010008CB010008CB010008CB01000820
:10009000CB010008CB010008CB010008CB01000810
:1000A000CB010008CB010008CB010008CB01000800
:1000B000CB010008CB010008CB010008CB010008F0
:1000C000CB010008CB010008CB010008CB010008E0
:1000D000CB010008CB010008CB010008CB010008D0
:1000E000CB010008CB010008CB010008CB010008C0
:1000F000CB010008CB010008CB010008CB010008B0
:10010000CB010008CB010008CB010008CB0100089F
:10011000CB010008CB010008CB010008CB0100088F
:10012000CB010008CB010008CB010008CB0100087F
:1001300000F002F800F02CF80AA090E8000C8244CD
:100140008344AAF10107DA4501D100F021F8AFF2AA
:10015000090EBAE80F0013F0010F18BFFB1A43F0A5
:1001600001031847D8080000E80800000023002415
:1001700000250026103A28BF78C1FBD8520728BFB7
:1001800030C148BF0B6070471FB51FBD10B510BD13
:1001900000F031F81146FFF7F7FF00F027FC00F000
:1001A0004FF803B4FFF7F2FF03BC00F057F800006C
:1001B0000948804709480047FEE7FEE7FEE7FEE7FB
:1001C000FEE7FEE7FEE7FEE7FEE7FEE70448054937
:1001D000054A064B70470000E90600083101000897
:1001E0006000002060060020600200206002002005
:1001F000704770477047754600F02CF8AE46050012
:100200006946534620F00700854618B020B5FFF731
:10021000DDFFBDE820404FF000064FF000074FF033
:1002200000084FF0000B21F00701AC46ACE8C00914
:10023000ACE8C009ACE8C009ACE8C0098D4670471D
:1002400010B50446AFF300802046BDE81040FFF72C
:10025000A8BF000000487047000000200149182096
:10026000ABBEFEE726000200704700BFFEE70000BD
:1002700010B50024002000F02BF8002000F094F8C6
:100280004FF4FA7000F060FA012000F08DF80120C0
:1002900000F01EF804E0601CC4B2012000F054FA23
:1002A00001210A4800F0BAF8012801D1642CF2DBE0
:1002B00004E0601CC4B2012000F046FA01210348AA
:1002C00000F0ACF808B9F02CF3DB10BD00080140D9
:1002D0000E49096821F00F010C4A116060B91146FE
:1002E000096841F00301116008490C31096841F0C7
:1002F0000101064A0C321160012805D10349096841
:1003000041F00801014A11607047000000080140F7
:1003100070B5FFF7ADFFCC2000F056F8442000F098
:1003200053F8FFF7A5FFCC2000F04EF8BE2000F0F8
:100330004BF800F013F8064600F010F8044620468B
:1003400000F01AFB304600F017FB25464FF6FF7011
:1003500000EA05253543284670BD000070B5002031
:10036000FFF7B6FF082519E0002000F01DF8052072
:1003700000F0EAF9012000F017F80121094800F027
:100380004DF8012803D144F08004641001E000BF5F
:100390006410372000F0D8F9681EC5B2002DE3DCE8
:1003A000204670BD0008014010B50446012C03D161
:1003B0000121044800F03DF81CB90121014800F07A
:1003C00036F810BD0008014070B504460020FFF764
:1003D0007FFF08251EE004F00106641066B10020CE
:1003E000FFF7E2FF062000F0AFF90120FFF7DCFF86
:1003F0003C2000F0A9F90BE00020FFF7D5FF4620D4
:1004000000F0A2F90120FFF7CFFF012000F09CF9D6
:10041000681EC5B2002DDEDC70BD704702460020AC
:1004200093680B400BB1012000E000207047416150
:1004300070470161704700000548806940F0040082
:10044000034988610846806940F4804088617047AC
:100450000010024000B5FFF7EFFF0648006820F4E7
:100460007F60044908600846006840F492600860B4
:1004700000BD00000408014000BFFEE710B50120E8
:1004800000F04CF8012000F031F800F007F80446C5
:10049000002000F02BF8204610BD000010B50448E5
:1004A0008068C4B2012000F04FF9204610BD000062
:1004B0000010014010B5012000F030F8012000F0DC
:1004C00015F8002000F02AF8002000F00FF810BD09
:1004D00010B5002000F00AF8002000F01FF80120FD
:1004E00000F004F8012000F019F810BD10B5044622
:1004F000012C05D10848C06840F010000649C860CA
:100500002CB90548C06820F010000349C8600120DC
:1005100000F01AF910BD00000010014010B50446AB
:10052000012C05D10848C06840F020000649C86089
:100530002CB90548C06820F020000349C8600A2093
:1005400000F002F910BD0000001001400D48806964
:1005500040F010000B4988610B48006820F47F00D0
:10056000094908600846006840F4EE000860084643
:10057000C06840F01000C8600846C06840F0200025
:10058000C8607047001002400010014000BFFEE745
:10059000704770471248006840F480301049086086
:1005A0000846006840F080700860002048600846F7
:1005B000406840F0020048600846406840F48030DF
:1005C00048600846406840F4806048604FF0E02092
:1005D000006940F004004FF0E0210861704700001E
:1005E00000100240704710B500F002F810BD000086
:1005F0000CB50020019000903348006840F4803032
:100600003149086000BF3048006800F400300090B5
:100610000198401C0190009818B90198B0F5A06F9E
:10062000F1D12948006800F4003010B10120009099
:1006300001E0002000900098012843D12348006881
:1006400040F01000214908600846006820F00700CB
:1006500008600846006840F0020008601A484068D8
:10066000194948600846406848600846406840F4B8
:10067000806048600846406820F47C104860084666
:10068000406840F4E81048600846006840F0807018
:10069000086000BF0C48006800F000700028F9D026
:1006A0000948406820F00300074948600846406850
:1006B00040F00200486000BF0348406800F00C00B2
:1006C0000828F9D10CBD00000010024000200240B3
:1006D000704710B5044604E04FF47A7000F034F827
:1006E000641E002CF8D110BD10B51348006840F00E
:1006F00001001149086008464068104908400E4949
:100700004860084600680E4908400B4908600846E2
:10071000006820F4802008600846406820F4FE004D
:1007200048604FF41F008860FFF75DFF4FF00060E6
:100730000449086010BD0000001002400000FFF8EE
:10074000FFFFF6FE08ED00E0014601EBC1020123C8
:10075000C3EBC2024FF0E0235A611A4692699A61D4
:100760001A46126942F001021A6100BF4FF0E022FE
:10077000106900F001021AB100F48032002AF5D0AD
:100780004FF0E022126922F001024FF0E0231A61DB
:100790001A4692699A61704710B50021C02000F096
:1007A00019F80021C12000F015F80021C22000F046
:1007B00011F80021C32000F00DF810BD10B504465B
:1007C000FFF778FE204600F0ABF8FFF757FEFFF783
:1007D0007FFE10BD70B505460C46FFF76BFE284640
:1007E00000F09EF8FFF74AFE204600F099F8FFF768
:1007F00045FEFFF76DFE70BD70B5044642F20F7006
:10080000844200D90446B4F57A7F2AD34FF47A7033
:10081000B4FBF0F0C5B22946002000F073F8642064
:10082000B4FBF0F00A21B0FBF1F201FB12052946FE
:10083000012000F067F80A20B4FBF0F00A21B0FBB9
:10084000F1F201FB12052946022000F05BF80A20B4
:10085000B4FBF0F100FB11452946032000F052F8EB
:100860004FE0632C21D91021002000F04BF86420C8
:10087000B4FBF0F0C5B22946012000F043F80A208D
:10088000B4FBF0F00A21B0FBF1F201FB120529469E
:10089000022000F037F80A20B4FBF0F100FB11450C
:1008A0002946032000F02EF82BE0092C19D910213D
:1008B000002000F027F81021012000F023F80A2082
:1008C000B4FBF0F0C5B22946022000F01BF80A2064
:1008D000B4FBF0F100FB11452946032000F012F8AB
:1008E0000FE01021002000F00DF81021012000F091
:1008F00009F81021022000F005F8E1B2032000F011
:1009000001F870BD70B504460D46034A515D034AB7
:10091000105DFFF75FFF70BD240A0008350A00086C
:1009200070B504460020FFF7E1FD002512E004F059
:10093000010018B10120FFF7F1FD02E00020FFF7F0
:10094000EDFD64100120FFF7D1FD0020FFF7CEFD83
:10095000681CC5B2082DEADB70BD10B50446FFF770
:10096000F5FD44F08800FFF729FF4420FFF726FF3C
:10097000FFF712FF10BD000000BF0849098801F011
:1009800080010029F9D00549091D088000BF0349ED
:10099000098801F040010029F9D070470038014072
:1009A0004FF4EA500F490880081D008820F4805059
:1009B000091D0880081D008820F44050091D08808A
:1009C000081F008820F48060091F088008460088FE
:1009D00040F00C0008800846008840F40050088071
:1009E000704700000838014000BFFEE7FFF732FD06
:1009F000FFF7D0FDFFF7D4FFFFF73AFC0720FFF722
:100A0000ACFF0EE00A20FFF764FEFFF781FC04460E
:100A100040F271206043642190FBF1F52846FFF716
:100A2000EBFEEFE73F065B4F666D7D077F6F777CE0
:100A3000395E797100C0C1C2C30000004C0A0008D1
:0C0A400000000020600600006C010008AF
:0400000508000131BD
:00000001FF
