:020000040800F2
:10000000900C00200D0200083906000805060008C3
:1000100035060008C7020008490C0008000000006F
:10002000000000000000000000000000A107000820
:10003000D3040008000000003B0600088D080008FB
:1000400027020008270200082702000827020008EC
:1000500027020008270200082702000827020008DC
:1000600027020008270200082702000827020008CC
:1000700027020008270200082702000827020008BC
:1000800027020008270200082702000827020008AC
:10009000270200082702000827020008270200089C
:1000A000270200082702000827020008270200088C
:1000B0007D0900082702000827020008270200081F
:1000C000270200082702000827020008270200086C
:1000D000270200082702000827020008270200085C
:1000E000270200082702000827020008270200084C
:1000F000270200082702000827020008270200083C
:100100002702000827020008A509000827020008A6
:10011000270200082702000827020008270200081B
:10012000270200082702000827020008270200080B
:1001300000F002F800F05AF80AA090E8000C82449F
:100140008344AAF10107DA4501D100F04FF8AFF27C
:10015000090EBAE80F0013F0010F18BFFB1A43F0A5
:10016000010318473C0F00005C0F00000A444FF0E9
:10017000000C10F8013B13F0070408BF10F8014B06
:100180001D1108BF10F8015B641E05D010F8016B4B
:10019000641E01F8016BF9D113F0080F1EBF10F8AF
:1001A000014BAD1C0C1B09D16D1E58BF01F801CBD2
:1001B000FAD505E014F8016B01F8016B6D1EF9D555
:1001C0009142D6D37047000000230024002500266A
:1001D000103A28BF78C1FBD8520728BF30C148BFAA
:1001E0000B6070471FB51FBD10B510BD00F031F892
:1001F0001146FFF7F7FF00F063FD00F04FF803B47E
:10020000FFF7F2FF03BC00F057F8000009488047F1
:1002100009480047FEE7FEE7FEE7FEE7FEE7FEE7E8
:10022000FEE7FEE7FEE7FEE704480549054A064B00
:10023000704700001D0900083101000890060020E9
:10024000900C002090080020900800207047704714
:100250007047754600F02CF8AE46050069465346D7
:1002600020F00700854618B020B5FFF7DDFFBDE898
:1002700020404FF000064FF000074FF000084FF00D
:10028000000B21F00701AC46ACE8C009ACE8C0099E
:10029000ACE8C009ACE8C0098D46704710B504460B
:1002A000AFF300802046BDE81040FFF7A8BF000074
:1002B000004870473006002001491820ABBEFEE719
:1002C00026000200704700BFFEE7000008B50121CC
:1002D000102000F0C3F914208DF803004FF4C05033
:1002E000ADF8000003208DF8020069461D4800F0BB
:1002F000F1F84FF47A7000F0A9FCAE21012000F073
:10030000CBF80021012000F0C7F8B021012000F057
:10031000C3F88121012000F0BFF8C821012000F0BE
:10032000BBF81421012000F0B7F8D521012000F01E
:10033000B3F8D821012000F0AFF8D921012000F056
:10034000ABF8DA21012000F0A7F8DB21012000F052
:10035000A3F8AF21012000F09FF8A521012000F0B3
:100360009BF808BD001001407047000070B50446BE
:10037000002625464FF48051144800F03FF9FFF75E
:10038000F3FF00BF1EE005F08000802804D10101CA
:100390000E4800F035F904E04FF400610B4800F01E
:1003A0002DF96806050E4FF48051084800F028F931
:1003B000FFF7DAFF4FF48051044800F01FF9FFF710
:1003C000D3FF761C082EDED370BD00000010014064
:1003D00010B54FF400610C4800F012F9FFF7C4FFAC
:1003E0004FF48051084800F00BF9FFF7BDFF4FF4C0
:1003F0000061054800F002F9FFF7B6FF4FF48051A5
:10040000014800F0FBF810BD0010014010B54FF49A
:1004100000610A4800F0F2F8FFF7A6FF4FF48051A0
:10042000064800F0EDF8FFF79FFF4FF40061034826
:1004300000F0E6F8FFF798FF10BD00000010014043
:1004400010B54FF48051134800F0D8F8FFF78CFF37
:100450004FF400610F4800F0D3F8FFF785FF4FF429
:1004600000610C4800F0C1F804464FF4805109487F
:1004700000F0C6F8FFF778FF4FF48051054800F010
:10048000BDF8012C01D1002010BD0CB90120FBE703
:100490000020F9E70010014070B504460D46FFF753
:1004A00097FF7820FFF762FFFFF7CAFF012C02D108
:1004B0000020FFF75BFF14B94020FFF757FFFFF75D
:1004C000BFFF2846FFF752FFFFF7BAFFFFF79EFF77
:1004D00070BD70472DE9F04102460025002600203E
:1004E00000230024002791F803C00CF00F0591F8B9
:1004F00003C00CF0100CBCF1000F03D091F802C047
:100500004CEA050591F800C0BCF1000F31D0146829
:1005100000202BE04FF0010C0CFA00F3B1F800C002
:100520000CEA03069E4220D183004FF00F0C0CFA18
:1005300003F7BC4305FA03FC4CEA040491F803C03A
:10054000BCF1280F06D14FF0010C0CFA00FCC2F8E8
:1005500014C00AE091F803C0BCF1480F05D14FF078
:10056000010C0CFA00FCC2F810C0401C0828D1D3C2
:100570001460B1F800C0BCF1FF0F34DD54680020F6
:100580002EE000F1080C4FF0010808FA0CF3B1F866
:1005900000C00CEA03069E4221D183004FF00F0CED
:1005A0000CFA03F7BC4305FA03FC4CEA040491F887
:1005B00003C0BCF1280F05D100F1080C08FA0CF8B3
:1005C000C2F8148091F803C0BCF1480F07D100F1C4
:1005D000080C4FF0010808FA0CF8C2F81080401C13
:1005E0000828CED35460BDE8F0810246002093680D
:1005F0000B400BB1012000E00020704741617047C3
:100600000161704700BFFEE708B50121082000F036
:1006100025F814208DF803004FF4C050ADF8000009
:1006200003208DF8020069460148FFF753FF08BD1B
:10063000000C014000BFFEE77047704729B1064A31
:1006400012690243044B1A6104E0034A12698243AF
:10065000014B1A61704700000010024029B1064AA0
:1006600092690243044B9A6104E0034A926982430F
:10067000014B9A61704700000010024029B1064A00
:10068000D2680243044BDA6004E0034AD268824332
:10069000014BDA60704700000010024030B50021C5
:1006A0000022002400232D4D6D6805F00C0121B1BE
:1006B000042905D0082923D105E0294D056022E051
:1006C000274D05601FE0254D6D6805F47012234D20
:1006D0006D6805F48034022505EB92421CB9214D6A
:1006E000554305600BE01D4D6D6805F400351DB1E7
:1006F0001C4D5543056002E0194D5543056002E06D
:10070000174D056000BF00BF144D6D6805F0F00186
:100710000909154D6B5C0568DD4045600F4D6D683E
:1007200005F4E061090A104D6B5C4568DD408560A9
:100730000A4D6D6805F46051C90A0B4D6B5C456844
:10074000DD40C560054D6D6805F44041890B074DDE
:100750006B5CC568B5FBF3F5056130BD0010024068
:1007600000127A0000093D00000000201000002067
:1007700001460020034A506820F0F0000843506012
:10078000704700000010024001460020034A5068F4
:1007900020F0030008435060704700000010024042
:1007A000704710B500F002F810BD00000CB5002035
:1007B000019000903348006840F48030314908606F
:1007C00000BF3048006800F4003000900198401CE1
:1007D0000190009818B90198B0F5A06FF1D129489F
:1007E000006800F4003010B10120009001E000200A
:1007F00000900098012843D12348006840F0100081
:10080000214908600846006820F003000860084697
:10081000006840F0020008601A48406819494860C2
:100820000846406848600846406840F48060486078
:100830000846406820F47C1048600846406840F450
:10084000E81048600846006840F08070086000BF0B
:100850000C48006800F000700028F9D00948406892
:1008600020F00300074948600846406840F0020055
:10087000486000BF0348406800F00C000828F9D128
:100880000CBD000000100240002002407047000034
:1008900010B52148406820F001001F494860084613
:1008A000406840F0010048600846406820F00200BF
:1008B00048600846406820F080004860084640686C
:1008C00040F0800048600846006820F4403008602E
:1008D0000846006840F4403008600846006820F090
:1008E000030008600220FFF74FFF0020FFF740FFE2
:1008F0004FF0E02000694FF0E021086108460069F0
:1009000008610846006920F0010008610846006996
:1009100040F00100086110BD0010024010B51348FE
:10092000006840F00100114908600846406810491D
:1009300008400E494860084600680E4908400B49C7
:1009400008600846006820F4802008600846406877
:1009500020F4FE0048604FF41F008860FFF721FF7D
:100960004FF000600449086010BD00000010024014
:100970000000FFF8FFFFF6FE08ED00E010B50121D2
:10098000880700F05BF80121044800F057F804489C
:100990000088401C0249088010BD0000000C004087
:1009A000D405002070B501211E4800F047F8012150
:1009B000880700F043F81C48008802282CD11B4807
:1009C00000680C2809D11A4800221A4BD0E90041CE
:1009D000204600F07FF9164A03C2144800680D282B
:1009E00009D113480022134BD0E90041204600F002
:1009F0006DFA0F4A03C20D4800680A2802D1002090
:100A00000D490880094800680B2802D101200A49D5
:100A1000088000200449088003480088401C0249DF
:100A2000088070BD000C0040D6050020CC050020D9
:100A3000F00500200000F03FDA050020CA430282E2
:100A4000704721B1828942F40052828104E0828998
:100A50004DF6FF731A408281704700001FB500F009
:100A60006DF80E4800F01CF84FF41650009000206E
:100A7000ADF80C000820ADF80A000020ADF8080021
:100A8000ADF80600ADF804006946044800F070F8BF
:100A900001210248FFF7D5FF1FBD000000380140CB
:100AA00010B504462048844209D101218803FFF78C
:100AB000E5FD00214FF48040FFF7E0FD32E01B48E8
:100AC000844209D101214804FFF7B8FD00214FF409
:100AD0000030FFF7B3FD25E01548844209D101211C
:100AE0008804FFF7ABFD00214FF48020FFF7A6FD3F
:100AF00018E01048844209D10121C804FFF79EFD87
:100B000000214FF40020FFF799FD0BE00A488442D2
:100B100008D101210805FFF791FD00214FF4801055
:100B2000FFF78CFD10BD000000380140004400407C
:100B300000480040004C00400050004008B5012132
:100B40008803FFF78BFD01210420FFF787FD1820A4
:100B50008DF803004FF40070ADF8000003208DF80D
:100B6000020069460148FFF7B5FC08BD00080140D6
:100B70002DE9F04786B005460E460024A24600BF88
:100B8000A1460027B08900B100BF2F462C8A4CF641
:100B9000FF700440F08804432C82AC894EF6F310B9
:100BA0000440B08831890843718908430443AC810B
:100BB000AC8A4FF6FF400440B0890443AC8201A8E0
:100BC000FFF76CFD1F48874202D1DDF810A001E05D
:100BD000DDF80CA0A88900F4004040B10AEBCA007F
:100BE00000EB0A1031684900B0FBF1F807E00AEBAE
:100BF000CA0000EB0A1031688900B0FBF1F86420EC
:100C0000B8FBF0F004012009642101FB1089A889D8
:100C100000F4004040B1322000EBC900B0FBF1F01D
:100C200000F00700044308E0322000EB09106421C3
:100C3000B0FBF1F000F00F0004432C8106B0BDE8DA
:100C4000F08700000038014000BFFEE74FF0E021D0
:100C5000096941F001014FF0E02211611749414358
:100C60004FF47A72B1FBF2F14FF0E022516111467C
:100C7000096921F0020111610021916111460969A0
:100C800041F00101116107E04FF0E021096941F0F5
:100C900001014FF0E02211614FF0E021096901F4F8
:100CA00080310029F0D04FF0E021096921F00101E5
:100CB0004FF0E022116100219161704740420F0026
:100CC000FFF7E6FDFFF7A0FCFFF700FBFFF7C6FE0E
:100CD00000BFFEE710B591EA030F48BF83F0004361
:100CE00000F1FC80841A71EB030C05D2121943EB5E
:100CF0000C03001B61EB0C01DFF824E14FEA1154F7
:100D0000A4EB135C1EEA430F18BF9EEA445F73D046
:100D100023EA0E03DCF1200E21EA045143F4801390
:100D200032D322FA0CFE10EB0E0023FA0CFE41EB3C
:100D30000E01CCF1200E03FA0EFE10EB0E0051F165
:100D40000001B1F5801FCCF1200E32D201EB04512D
:100D500012FA0EF2BDE8104058BF7047401C38BF71
:100D60005FEA420218BF7047002814BF20F001005C
:100D700041F100014FEA410313F5001F38BF7047EE
:100D8000A1F1C04100F09CB8012A43EB0302ACF191
:100D9000200CDCF11F0E32BF4FF0000E23FA0CF3D3
:100DA00010EB030041EB0451B4EB115FD0D0A1EB89
:100DB000045101F5801149085FEA300001EB04514C
:100DC0000ED350F1000038BF12FA0EFE08D1BDE874
:100DD0001040C9E7401C38BF5FEA4202CAD1C3E7EE
:100DE000BDE810404FEA410313F5001F38BF7047BC
:100DF000A1F1C04100F064B89EEA445F08D011EA56
:100E00005E0FBDE8104004BF01F0004100207047B4
:100E1000BDE8104070B500F005F800BF64FBBE3EB1
:100E20000000E0FF0EF1020E2EF0030E5EF8046BE0
:100E3000364205D4012A43EB030515F5001F12D8ED
:100E4000012841EB010C1CF5001F0CD80ED14FEA14
:100E5000D17C15F5001F0CEB4C0C0CF1020C08BFFB
:100E60004CEBD37C04E04FF0080C01E04FEAD37C5C
:100E70000CEB4C0526FA05F606F00706B6F1040C55
:100E800006D20EEB860CBDE870404CF0010C6047BA
:100E9000DFE80CF0090B02024FF000414FF00000B8
:100EA000A1F5002170BD19461046012851EB01043F
:100EB00018BFD4F5001484BF002001F0004170BDBC
:100EC0000808A0F500114FEA3101704710B591EA0A
:100ED000030F48BF83F000433FF504AF841A71EB62
:100EE000030C07D212198CF0004C43EB0C03001BCF
:100EF00061EB0C01DFF8A4E14FEA1154A4EB135CA1
:100F00001EEA430F18BF9EEA445F00F0B08023EA58
:100F10006E03524221EA0451C3EB6E0338BF5B1EDD
:100F2000DCF1200E25D322FA0CFE10EB0E0043FA62
:100F30000CFE41EB0E01CCF1200E03FA0EFE10EB7D
:100F40000E0051F10001CCF1200E29D412FA0EF25C
:100F500001EB0451BDE8104058BF7047401C1CBF56
:100F6000B2F1004F704700280CBF491C20F001006F
:100F7000704712EB020E43EB030218BF4FF0010E55
:100F80004EEA4202ACF1200CDCF11E0E54D943FAB9
:100F90000CFE10EB0E0051F1FF31CCF11E0ED5D539
:100FA0000EF1010E12FA0EFE404141EB010101EB80
:100FB000445C5FEA5C5C10D910EBDE7001EB04511D
:100FC00038BFBEF1004FBDE8104018BF7047002881
:100FD0000CBF491C20F00100704730D24FEAD42CDE
:100FE00011F5001124F400641BD0B1FA81F20B3A20
:100FF000A41AA41ED2F12003914030FA03F319433E
:10100000904001EBCC71002C01EB0451BDE8104085
:10101000A8BF704701F1C0414FF0000001F000414E
:101020007047B0FA80F310FA03F100D110BDE41A52
:10103000173C4805C90AE4E701EB045110BD49100B
:1010400001EB0451BDE810404FEA300002E04FF0E0
:10105000000170474A0008BF0042F8D0B2F5001FF7
:1010600028BF704701F000414FF0000070479EEA32
:10107000445F07D011EA5E0FBDE8104004BF0021B5
:1010800000207047BDE8104070B5FFF7CBFE00BFF1
:1010900040DFF63E83F00041104670470000E0FF5D
:1010A000C010000800000020F00500006C010008DE
:1010B00054140008F0050020A0060000C801000834
:1010C000412D010203040410090607080902040661
:1010D00008180C88781ECA08084848F85E4801219C
:1010E000170909097F0909371333325ACE061480CC
:1010F0008C98100B0CEC2C2CFE2C2C2CEC0C180FC0
:1011000040C03F3F20514945435F4147454930403A
:101110000F4046CC08C0603C0404047C4040403092
:101120000D7FB09841472D31396D4340C02A385862
:101130002B4ECC063238180A40701C1E3020607FBF
:1011400044012930200F1090FE901004E4AEAEA4AC
:10115000AEAEE4041406037F100C43484B2A3A0E4B
:101160001A2A4BC8404A100120083EFE10141C10D9
:1011700010700F2061213F3F111110031E3060409D
:10118000701AC0011AF0013AFC012CF0F0C079117C
:101190000C15FCFCFF01380C3C3C3F3FF0F0C3C396
:1011A0000F0F3F011A0F011AC3012944433C3C3E73
:1011B00003030F0F3C01291C1A0301F123C080CB4C
:1011C000303071197219732910212B0A0F148B3FBB
:1011D0003F731AF06D697527F0F00C0C70B06BFF5F
:1011E000FF75523F69771C3F3F0C019B3333771CDF
:1011F000C07878511009203E070202073C201FF8F2
:1012000088888898706226313131111E1EF01808C6
:101210000818101E0F18302030101AF80F1B30E07D
:10122000201E303010180F1019304B8888303B3199
:101230003120190119101A01013199401B23138D16
:101240001BF880015AF820399D1AF80E414A3FAB2D
:101250003913213D1C303030604D80C06018501C67
:10126000071C30A07119801901393E2A8042153FB0
:10127000013F1F29601A70CE2910111B0107FD3A8A
:10128000808012F03E031F10202050199E1910116B
:101290002C3F0303A1A9204C2C382F202A98201979
:1012A000701A1D601E70D888083808271C3021214C
:1012B000331E1C0808F82389B039901905171F3010
:1012C0002020301F1B08F87F33E07825073C3E03C1
:1012D0002B38F0A22BF8082E1B033C80171870C087
:1012E000C038081D20380E03D01188080838E08067
:1012F000C0701850197F1BC878103C383E33E0117D
:101300001A8001312E1D2424321FE059101A3FD0BB
:101310008B191F2029804B11190F5A80902A1952BE
:1013200069202E122222331B0F3DF88888887061B5
:101330003931212FFB949494B760CB49106B3F0156
:101340002363989849A069114EC08080FF7FFB49B4
:10135000902D06030718B029F08930394D1904196A
:101360000D4903390EA96069A019D01A11D0598FFF
:10137000115AFFE03910191139D02AFF304970494C
:101380004189402F1B33242435190E4AF020111CAB
:101390001F202090390C49401B30187069102F0114
:1013A0000F383807014C39034808011F3C03073840
:1013B0000FCD29248F30190E0F1920302C818FF872
:1013C0003079901E30382423212027F0180808187F
:1013D000E01B0F10601940656020F0F819ED2948F6
:1013E00019202BD870301C3433319019102A8810F2
:1013F0002F18102021130E5C1B60303110090407D8
:101400000504043F040417F098C88888081B0819CD
:10141000B02A19902CC0F098841B1F31CF131F06DF
:101420002F08080888E83859433E032CF088885074
:101430001008041F312121311E1BE0F0211B98F000
:10144000E02C233A0F21E99049E2399A198E011FC5
:0414500039620111EB
:0400000508000131BD
:00000001FF
