:020000040800F2
:1000000060060020B10100089D0400088F0300086D
:10001000990400086B020008CD06000800000000EB
:100020000000000000000000000000007F05000844
:100030006F020008000000009F0400086906000825
:10004000CB010008CB010008CB010008CB01000860
:10005000CB010008CB010008CB010008CB01000850
:10006000CB010008CB010008CB010008CB01000840
:10007000CB010008CB010008CB010008CB01000830
:10008000CB010008CB010008CB010008CB01000820
:10009000CB010008CB010008CB010008CB01000810
:1000A000CB010008CB010008CB010008CB01000800
:1000B000CB010008CB010008CB010008CB010008F0
:1000C000CB010008CB010008CB010008CB010008E0
:1000D000CB010008CB010008CB010008CB010008D0
:1000E000CB010008CB010008CB010008CB010008C0
:1000F000CB010008CB010008CB010008CB010008B0
:10010000CB010008CB010008CB010008CB0100089F
:10011000CB010008CB010008CB010008CB0100088F
:10012000CB010008CB010008CB010008CB0100087F
:1001300000F002F800F02CF80AA090E8000C8244CD
:100140008344AAF10107DA4501D100F021F8AFF2AA
:10015000090EBAE80F0013F0010F18BFFB1A43F0A5
:1001600001031847780500008805000000230024DB
:1001700000250026103A28BF78C1FBD8520728BFB7
:1001800030C148BF0B6070471FB51FBD10B510BD13
:1001900000F031F81146FFF7F7FF00F099FA00F090
:1001A0004FF803B4FFF7F2FF03BC00F057F800006C
:1001B0000948804709480047FEE7FEE7FEE7FEE7FB
:1001C000FEE7FEE7FEE7FEE7FEE7FEE70448054937
:1001D000054A064B704700006D0600083101000813
:1001E0006000002060060020600200206002002005
:1001F000704770477047754600F02CF8AE46050012
:100200006946534620F00700854618B020B5FFF731
:10021000DDFFBDE820404FF000064FF000074FF033
:1002200000084FF0000B21F00701AC46ACE8C00914
:10023000ACE8C009ACE8C009ACE8C0098D4670471D
:1002400010B50446AFF300802046BDE81040FFF72C
:10025000A8BF000000487047000000200149182096
:10026000ABBEFEE726000200704700BFFEE7704706
:100270002DE9F0410246002500260020002300243D
:10028000002791F803C00CF00F0591F803C00CF0A3
:10029000100CBCF1000F03D091F802C04CEA050528
:1002A00091F800C0BCF1000F31D0146800202BE0A1
:1002B0004FF0010C0CFA00F3B1F800C00CEA030691
:1002C0009E4220D183004FF00F0C0CFA03F7BC4381
:1002D00005FA03FC4CEA040491F803C0BCF1280FB2
:1002E00006D14FF0010C0CFA00FCC2F814C00AE071
:1002F00091F803C0BCF1480F05D14FF0010C0CFA86
:1003000000FCC2F810C0401C0828D1D31460B1F81A
:1003100000C0BCF1FF0F34DD546800202EE000F176
:10032000080C4FF0010808FA0CF3B1F800C00CEA11
:1003300003069E4221D183004FF00F0C0CFA03F705
:10034000BC4305FA03FC4CEA040491F803C0BCF179
:10035000280F05D100F1080C08FA0CF8C2F8148037
:1003600091F803C0BCF1480F07D100F1080C4FF021
:10037000010808FA0CF8C2F81080401C0828CED3F7
:100380005460BDE8F081416170470161704700BF72
:10039000FEE7000010B54FF480510948FFF7F3FF66
:1003A0004FF400610648FFF7EEFF4FF48051044818
:1003B000FFF7EBFF4FF480510148FFF7E4FF10BD5A
:1003C0000010014008B50121102000F069F8142048
:1003D0008DF803004FF4C050ADF8000003208DF8F5
:1003E000020069460148FFF743FF08BD00100140C5
:1003F00010B54FF480510948FFF7C7FF4FF4006173
:100400000648FFF7C2FF4FF400610448FFF7BBFF47
:100410004FF480510148FFF7B6FF10BD00100140B6
:1004200010B54FF400610948FFF7ADFF4FF480515C
:100430000648FFF7AAFF4FF400610448FFF7A5FF45
:100440004FF480510148FFF79EFF10BD001001409E
:1004500070B5044600251AE04FF480510D48FFF7AF
:1004600092FFE00928B14FF400610A48FFF78DFFC1
:1004700004E04FF400610748FFF785FF6006040EB3
:100480004FF480510348FFF780FF681CC5B2082D68
:10049000E2DB70BD0010014000BFFEE7704770470F
:1004A00029B1064A92690243044B9A6104E0034A67
:1004B00092698243014B9A6170470000001002402C
:1004C00010B50446FFF794FF7820FFF7C1FFFFF750
:1004D00061FF0020FFF7BCFFFFF75CFF2046FFF73E
:1004E000B7FFFFF757FFFFF79BFF10BD10B5FFF7F2
:1004F00069FFAE20FFF7E4FFD520FFF7E1FF802082
:10050000FFF7DEFFA820FFF7DBFF3F20FFF7D8FF54
:10051000D320FFF7D5FF0020FFF7D2FF4020FFF7E1
:10052000CFFFA120FFF7CCFFC820FFF7C9FFDA20DB
:10053000FFF7C6FF1220FFF7C3FF8120FFF7C0FFC0
:10054000CF20FFF7BDFFD920FFF7BAFFF120FFF75B
:10055000B7FFDB20FFF7B4FF3020FFF7B1FFA52086
:10056000FFF7AEFFA620FFF7ABFF8D20FFF7A8FF38
:100570001420FFF7A5FFAF20FFF7A2FF10BD7047C3
:1005800010B500F001F810BD0CB5002001900090EE
:100590003348006840F480303149086000BF30487B
:1005A000006800F4003000900198401C0190009811
:1005B00018B90198B0F5A06FF1D12948006800F48E
:1005C000003010B10120009001E000200090009860
:1005D000012843D12348006840F0100021490860F9
:1005E0000846006820F0070008600846006840F0F0
:1005F000020008601A484068194948600846406887
:1006000048600846406840F480604860084640689A
:1006100020F47C1048600846406840F4E8104860C8
:100620000846006840F08070086000BF0C48006811
:1006300000F000700028F9D00948406820F003005D
:10064000074948600846406840F00200486000BF23
:100650000348406800F00C000828F9D10CBD0000E8
:1006600000100240002002407047000010B51348FF
:10067000006840F0010011490860084640681049D0
:1006800008400E494860084600680E4908400B497A
:1006900008600846006820F480200860084640682A
:1006A00020F4FE0048604FF41F008860FFF768FFE9
:1006B0004FF000600449086010BD000000100240C7
:1006C0000000FFF8FFFFF6FE08ED00E000BFFEE7C8
:1006D00010B5FFF70BFF002010BD0000EC0600086E
:0C06E00000000020600600006C01000813
:0400000508000131BD
:00000001FF
