:020000040800F2
:10000000D008002001010008370800088106000818
:1000100033080008F3040008090C00080000000081
:10002000000000000000000000000000D9090008E6
:10003000F70400080000000039080008C50A00089D
:100040001B0100081B0100081B0100081B01000820
:100050001B0100081B0100081B0100081B01000810
:100060001B0100081B0100081B0100081B01000800
:100070001B0100081B0100081B0100081B010008F0
:100080001B0100081B0100081B0100081B010008E0
:100090001B0100081B0100081B0100081B010008D0
:1000A0001B0100081B0100081B0100081B010008C0
:1000B0008F0B00081B0100081B0100081B01000832
:1000C0001B0100081B0100081B0100081B010008A0
:1000D0001B0100081B0100081B0100081B01000890
:1000E0001B0100081B0100081B010008DFF80CD0F1
:1000F00000F07AF8004800471D100008D0080020E2
:100100000648804706480047FEE7FEE7FEE7FEE7B1
:10011000FEE7FEE7FEE7FEE7FEE7FEE7C90A0008A6
:10012000ED0000082DE9F05F0546002092469B4651
:1001300088460646814640241BE0284641464746FD
:10014000224600F041F853465A46C01A914110D356
:1001500011461846224600F028F82D1A67EB0108D0
:100160004F4622460120002100F01FF817EB00093E
:100170004E41201EA4F10104DFDC484631462A46E8
:100180004346BDE8F09FD2B201E000F8012B491EC2
:10019000FBD270470022F6E710B513460A46044624
:1001A0001946FFF7F0FF204610BD202A04DB203A55
:1001B00000FA02F1002070479140C2F1200320FABA
:1001C00003F3194390407047202A04DB203A21FAB8
:1001D00002F00021704721FA02F3D040C2F1200260
:1001E0009140084319467047064C074D06E0E06809
:1001F00040F0010394E8070098471034AC42F6D36E
:10020000FFF778FFD0500008F050000810B5044602
:100210000F2C01DD002010BD0723012221460B48D1
:1002200000F0F6F80221094800F06CF801210748B7
:1002300000F04FF900BF0221044800F0ADF800289B
:10024000F9D0024800F0A4F8E5E7000000240140DE
:1002500000B587B001214FF4017000F00BFB4FF4A3
:10026000004000F0EBFA00208DF81B000120ADF8F3
:10027000180003208DF81A0006A9204800F03CF968
:100280001F4800F04DF8002001908DF808008DF80F
:1002900009004FF4602003900020049001208DF8A5
:1002A000140001A9164800F08BF807230122002151
:1002B000134800F0ADF80121114800F026F80020A5
:1002C000009003E000BF0098401C00900098B0F53B
:1002D0007A7FF7DB0A4800F0F7F800BF084800F023
:1002E00064F80028FAD1064800F0FEF800BF044880
:1002F00000F044F80028FAD107B000BD0008014022
:1003000000240140CA430260704721B1826842F074
:100310000102826003E0826822F00102826070477D
:1003200010B504461248844208D10121401500F05E
:10033000B1FA0021601500F0ADFA17E00D488442D3
:1003400008D10121001500F0A5FA0021201500F0C8
:10035000A1FA0BE00848844208D10121C80300F04B
:1003600099FA00214FF4004000F094FA10BD00000B
:100370000024014000280140003C014001460020CB
:100380008A6802F004020AB1012000E000207047F0
:100390000146C86C80B270470246002013680B40CB
:1003A0000BB1012000E000207047014600208A6860
:1003B00002F008020AB1012000E0002070470000AE
:1003C00030B502460020002350680F4C20400D79C4
:1003D0000C6844EA05242043506090680B4C204090
:1003E000D1E902542C434D7944EA450420439060FE
:1003F000D06A20F470000C7C641EE4B2234340EA0F
:100400000350D06230BD0000FFFEF0FFFDF7F1FFAA
:10041000F0B504460D4600200021092D11DDE068ED
:10042000A5F10A0606EB4607072606FA07F18843F8
:10043000A5F10A0606EB460603FA06F10843E0605A
:100440000CE0206905EB4507072606FA07F188430B
:1004500005EB450603FA06F108432061072A0FDA87
:10046000606B561E06EB86071F2606FA07F18843C7
:10047000561E06EB860605FA06F10843606322E085
:100480000D2A0FDA206BD61F06EB86071F2606FA09
:1004900007F18843D61F06EB860605FA06F10843E6
:1004A000206310E0E06AA2F10D0606EB86071F2626
:1004B00006FA07F18843A2F10D0606EB860605FA57
:1004C00006F10843E062F0BD816841F008018160F7
:1004D000704721B1826842F4A002826003E0826822
:1004E00022F4A00282607047816841F004018160BB
:1004F000704700BFFEE770472DE9F0410246002536
:100500000026002000230024002791F803C00CF0EF
:100510000F0591F803C00CF0100CBCF1000F03D0D4
:1005200091F802C04CEA050591F800C0BCF1000F3B
:1005300031D0146800202BE04FF0010C0CFA00F3CE
:10054000B1F800C00CEA03069E4220D183004FF0B0
:100550000F0C0CFA03F7BC4305FA03FC4CEA040445
:1005600091F803C0BCF1280F06D14FF0010C0CFA32
:1005700000FCC2F814C00AE091F803C0BCF1480FB7
:1005800005D14FF0010C0CFA00FCC2F810C0401C61
:100590000828D1D31460B1F800C0BCF1FF0F34DDDE
:1005A000546800202EE000F1080C4FF0010808FA12
:1005B0000CF3B1F800C00CEA03069E4221D183007F
:1005C0004FF00F0C0CFA03F7BC4305FA03FC4CEA9E
:1005D000040491F803C0BCF1280F05D100F1080C08
:1005E00008FA0CF8C2F8148091F803C0BCF1480F67
:1005F00007D100F1080C4FF0010808FA0CF8C2F816
:100600001080401C0828CED35460BDE8F081016101
:10061000704700000548806940F004000349886184
:100620000846806940F480408861704700100240AD
:1006300008B5FFF7EFFF10208DF803000220ADF89A
:10064000000003208DF8020069460C48FFF754FFB4
:1006500002210A48FFF7DBFF0848001D00686FF31E
:100660000B000649091D08600846006840F29141E8
:1006700008430249091D086008BD00000008014048
:1006800000BFFEE770B502460024002500230020CD
:10069000958A138B1B0445EA030626F07F4404EA7F
:1006A00001068E4201D1012000E0002070BD21B181
:1006B000028842F00102028004E002884FF6FE73D5
:1006C0001A400280704721B1028842F48072028091
:1006D00004E002884FF6FF631A400280704721B1A0
:1006E000028842F40072028004E002884FF6FF5351
:1006F0001A40028070470CB5024600200023019387
:10070000009300920B0F019321F07F41019B1BB1DD
:10071000009B1433009303E0090C009B18330093F3
:10072000009B1B680B400BB1012000E000200CBDBA
:100730002DE9F04385B004460D460026B146042756
:10074000DFF8CC80A6884FF6C0700640684600F0FF
:10075000B1F8DDF808802F48B8FBF0F01FFA80F9F7
:1007600046EA0906A68020884FF6FE7108402080E0
:1007700000262949286888420CD828684000B8FB20
:10078000F0F087B2042F00DA04273E4309F101009C
:10079000208427E0E8884BF6FF71884206D128685C
:1007A00000EB4000B8FBF0F087B209E0286800EBEE
:1007B000C00101EB0010B8FBF0F087B247F48047AE
:1007C000C7F30B0008B947F0010747F400400643A0
:1007D0004FF4967009FB00F04FF47A7190FBF1F042
:1007E000401C2084A683208840F0010020802688B9
:1007F0004FF6F5300640A8886989084306432680ED
:10080000A88929890843208105B0BDE8F08300004C
:1008100000127A0040420F00A086010012B141F0A0
:10082000010102E04FF6FE73194001827047018218
:10083000704700BFFEE77047704700000146002088
:10084000034A506820F4404008435060704700005D
:100850000010024029B1064AD2690243044BDA6112
:1008600004E0034AD2698243014BDA617047000019
:100870000010024029B1064A92690243044B9A6172
:1008800004E0034A92698243014B9A617047000079
:100890000010024029B1064AD2680243044BDA60D4
:1008A00004E0034AD2688243014BDA6070470000DB
:1008B0000010024030B500210022002400232D4DFD
:1008C0006D6805F00C0121B1042905D0082923D158
:1008D00005E0294D056022E0274D05601FE0254D0C
:1008E0006D6805F47012234D6D6805F4803402259F
:1008F00005EB92421CB9214D554305600BE01D4D9F
:100900006D6805F400351DB11C4D5543056002E0CE
:10091000194D5543056002E0174D056000BF00BF4B
:10092000144D6D6805F0F0010909154D6B5C056803
:10093000DD4045600F4D6D6805F4E061090A104D1A
:100940006B5C4568DD4085600A4D6D6805F460515B
:10095000C90A0B4D6B5C4568DD40C560054D6D688F
:1009600005F44041890B074D6B5CC568B5FBF3F599
:10097000056130BD0010024000127A0000093D0000
:1009800000000020100000201248006840F4803071
:10099000104908600846006840F080700860002038
:1009A00048600846406840F00200486008464068D9
:1009B00040F4803048600846406840F480604860F9
:1009C0004FF0E020006940F004004FF0E0210861A2
:1009D0007047000000100240704710B500F002F8A8
:1009E00010BD00000CB50020019000903348006855
:1009F00040F480303149086000BF3048006800F49E
:100A0000003000900198401C0190009818B901989E
:100A1000B0F5A06FF1D12948006800F4003010B1A2
:100A20000120009001E0002000900098012843D1AF
:100A30002348006840F0100021490860084600681B
:100A400020F0070008600846006840F002000860D7
:100A50001A48406819494860084640684860084696
:100A6000406840F4806048600846406820F47C108C
:100A700048600846406840F4E8104860084600684E
:100A800040F08070086000BF0C48006800F0007003
:100A90000028F9D00948406820F003000749486061
:100AA0000846406840F00200486000BF03484068C4
:100AB00000F00C000828F9D10CBD00000010024025
:100AC000002002407047000010B51348006840F055
:100AD00001001149086008464068104908400E4965
:100AE0004860084600680E4908400B4908600846FF
:100AF000006820F4802008600846406820F4FE006A
:100B000048604FF41F008860FFF767FF4FF00060F8
:100B10000449086010BD0000001002400000FFF80A
:100B2000FFFFF6FE08ED00E010B5044604E04FF4C8
:100B30007A7000F004F8641E002CF8D110BD014654
:100B400001EBC1020123C3EBC2024FF0E0235A6163
:100B50001A4692699A611A46126942F001021A61B4
:100B600000BF4FF0E022106900F001021AB100F45A
:100B70008032002AF5D04FF0E022126922F0010203
:100B80004FF0E0231A611A4692699A6170477047E4
:100B900043F6902018490880081D008820F48050F2
:100BA000091D0880081D008820F44050091D088098
:100BB000081F008820F48060091F0880084600880C
:100BC00040F0200008800846008840F00C000880B3
:100BD0000846008840F4005008800848006808492A
:100BE0000843064908600748006840F020004FF0BD
:100BF000E021C1F804017047083801400CED00E025
:100C000070A05F0004E100E000BFFEE70FB4084BF6
:100C100010B504A902AA039800F01CF8044602A922
:100C2000002000F02DF9204610BC5DF814FB0000F8
:100C3000810E000802E008C8121F08C1002AFAD17C
:100C400070477047002001E001C1121F002AFBD14C
:100C5000704700002DE9FF4F8BB09A460F460446BF
:100C6000002606E025280BD052460D999047641CBB
:100C7000761C20780028F5D10FB03046BDE8F08F03
:100C80000025A94601227D4900E0054314F8013FF3
:100C9000203B02FA03F00842F7D120782E2817D122
:100CA00014F8010F45F004052A280ED06FF02F022A
:100CB0002078A0F1300109290AD809EB890102EB5B
:100CC000410100EB0109641CF2E757F8049B641C26
:100CD00020786C280DD004DC4C2812D06A2811D161
:100CE00004E074280DD07A280CD10AE045F40015F0
:100CF00007E0617845F48015814202D1641C05F556
:100D00008015641C207869283ED006DC0028B3D00A
:100D100063280BD0642804D136E0732810D07528DE
:100D20005CD052460D999047761CA5E017F8040B4D
:100D30008DF8000000208DF80100E846012003E056
:100D400057F8048B4FF0FF3069074FF0000501D4CE
:100D50000AE06D1C4D450DDA8542FADB18F80510E6
:100D60000029F6D106E06D1C8542FCDB18F8051061
:100D70000029F8D12E4404E018F8010B52460D99D1
:100D800090476D1EF8D277E000200A90C5F302501C
:100D90004FF00A0B02280CD001CFC117021E71F1CF
:100DA00000020CDA0023D0EB030063EB01012D22DB
:100DB00008E0FF1D27F00707F7E80201EEE72A0524
:100DC00004D52B228DF82420012203E0EA070FD05E
:100DD0002022F7E70DF12008089218E000200A9081
:100DE000C5F302504FF00A0B022803D001CF0021B7
:100DF0000022EFE7FF1D27F00707F7E80201F7E7FA
:100E00005A460A9BFFF78EF9303208F8012D50EA56
:100E10000102F5D1ADEB080000F1200B680701D409
:100E20004FF00109D94502DDA9EB0B0000E00020DD
:100E30008146002506E009A85246405D0D9990477D
:100E40006D1C761C08988542F5DB04E03020524684
:100E50000D999047761CB9F10001A9F10109F5DC63
:100E600005E018F8010B52460D999047761CBBF12E
:100E70000001ABF1010BF4DC641CFAE60928010067
:100E80000A68531C0B601070704710B504460022AE
:100E90004C21204601F0E6FB10BD10B504460022AF
:100EA0004D21204601F0DEFB10BD10B50446206840
:100EB000427B2D21204601F0D5FB10BD10B5044624
:100EC00001224C21204601F0CDFB01224D2120467C
:100ED00001F0C8FB2046FFF7E8FF10BD10B504463F
:100EE000204600F01BF82046FFF7DFFF204600F009
:100EF0000AF8204600F012F82046FFF7D6FF2046F9
:100F0000FFF7C3FF10BD10B5044601224C21204657
:100F100001F0A8FB2046FFF7C8FF10BD10B504463E
:100F200001224D21204601F09DFB10BD10B5044665
:100F300094F8250040B12046FFF7F0FF2046FFF768
:100F4000B4FF2046FFF7DFFF2046FFF7E7FF20460C
:100F5000FFF7A3FF2046FFF7A8FF2046FFF795FF06
:100F6000012084F8250010BD10B504462046FFF787
:100F700094FF2046FFF799FF2046FFF7C4FF204665
:100F8000FFF7CCFF2046FFF790FF002084F82500F4
:100F900010BD70B505460C461CB12846FFF7BEFFD4
:100FA00002E02846FFF779FF2846FFF77EFF284634
:100FB000FFF7A9FF2846FFF768FF70BD70B505462B
:100FC0000C4604F080012846FFF7E3FF04F04001DF
:100FD0002846FFF7DEFF04F020012846FFF7D9FF7F
:100FE00004F010012846FFF7D4FF04F0080128465A
:100FF000FFF7CFFF04F004012846FFF7CAFF04F013
:1010000002012846FFF7C5FF04F001012846FFF75B
:10101000C0FF2846FFF762FF70BD000086B0FFF7F3
:10102000B3FCFFF705FBFFF7B3FD0121164800F005
:10103000B0FDFFF70DF926E001A8FFF73BFC00200B
:10104000FFF7E4F8044640F6E440604340F6FF71E1
:10105000B0FBF1F52A460DA11148FFF7D7FD0A486C
:1010600000F022F80F49084800F046F90C4B142212
:101070000021054800F0C4F8034800F034F90120CD
:10108000FFF752FD00BFD7E71C000020436F6E76CC
:10109000657273696F6E3A256C756D5600000000BD
:1010A000B0000020BA2D000870B504462068057C09
:1010B00094F838004543ED002946606BFFF76AF865
:1010C00070BD2DE9F04104460D4616461F467020BE
:1010D000005D30B101280AD002280ED0032818D1B3
:1010E00011E02046E16D8847304486B211E0204689
:1010F000E16D8847281A85B20BE02046E16D8847EC
:10110000301A86B205E02046E16D8847284485B252
:1011100000BF00BF3B4632462946204600F0A3FCF4
:10112000BDE8F0817FB582B004460A9D94F88C003A
:10113000002863D0BDF8140000285FD0BDF814006B
:1011400001281CDD022D0CD1BDF80C00BDF81410D7
:10115000401A80B20390BDF80C00401C80B203908E
:101160000DE0032D0BD1BDF81000BDF81410401A8E
:1011700080B20490BDF81000401C80B2049005F0CD
:101180000105C5B9B4F84C00BDF81010884201DD66
:1011900006B070BDB4F84E00BDF81010884200DCF7
:1011A000F6E7B4F84A30B4F8482005A903A800F0DF
:1011B000C4F9C0B9ECE7B4F84800BDF80C10884297
:1011C00000DDE5E7B4F84A00BDF80C10884200DC09
:1011D000DEE7B4F84E30B4F84C2005A904A800F0BE
:1011E000ACF900B9D4E70095206BBDF81430BDF818
:1011F0001020BDF80C1086682046B04700BFC7E736
:101200002DE9F04104460D4616461F46044860602D
:101210003B4632462946204600F08EFABDE8F08172
:101220007320000838B504468CB101210820FFF76F
:1012300021FB01210846FFF71DFB1C208DF8030050
:10124000C020ADF8000003208DF802000CE0012161
:101250000820FFF70FFB14208DF80300C020ADF825
:10126000000003208DF8020069460248FFF744F9A8
:1012700038BD0000000C014070B505460C4634B185
:10128000064B074A0749284600F08AF805E0034B59
:10129000054A0449284600F083F870BDA9250008D6
:1012A000D5200008304F0008B92100082DE9F04191
:1012B00004460D4616461F46DDF81880B4F84E1059
:1012C000B4F84C004346324600F078FC10B90020D8
:1012D000BDE8F081B4F84A10B4F848003B462A460D
:1012E00000F06CFCF4E710B50446204600F06EFDFB
:1012F000204600F077FE10BD70B504460D46A06D87
:10130000A84208D0A565294604F1740000F0EEFC5F
:10131000204600F067F870BD0149C16570470000C4
:10132000C917000810B50446002030342084A0847A
:101330004FF6FF706084E08454F83009416820461D
:10134000884710BD2DE9F04104460D4616461F465C
:10135000DDF818800020A065E762656384F83860D6
:1013600084F8390000216D20015500207434607725
:1013700060760120A077E07744F8448C54F8440C60
:10138000743C0168204688472046FFF7CBFF204683
:10139000FFF7C2FF002170200155BDE8F081000079
:1013A0002DE9FC4107460C4615461E462B460A4AC7
:1013B0000A493846009600F028FE01A800F08EFC8D
:1013C0008046074B00949DF8042041463846FFF7BD
:1013D000B9FFBDE8FC81000009230008492400088A
:1013E000ED1B0008816D01B970478121095C80F80F
:1013F0008E108221095C80F88F1090F88D1099B3BF
:1014000090F88D10012914D190F98E2090F9831055
:101410008A4203DA8321095C80F88E1090F98F20CC
:1014200090F984108A421FDD8421095C80F88F10B6
:101430001AE090F97E2090F98010114490F98E20E6
:10144000914207DD7E210A5C8021095C114449B28A
:1014500080F88E1090F98F2090F980108A4203DD79
:101460008021095C80F88F1000BFBDE710B523B163
:10147000012B05D0022B09D105E04418A0B208E0E9
:10148000841AA0B205E0441AA0B202E08418A0B207
:1014900000BF00BF10BD10B523B1012B05D0022B3A
:1014A00009D105E08418A0B208E04418A0B205E014
:1014B000841AA0B202E0441AA0B200BF00BF10BD5F
:1014C00038B504465034E08800906388A28834F828
:1014D00050192046FFF7EAFE18B9002084F88C0066
:1014E0002AE0012084F88C00B4F84800B4F85010C9
:1014F000884203DAB4F85000A4F84800B4F84A006F
:10150000B4F85210884203DDB4F85200A4F84A003F
:10151000B4F84C00B4F85410884203DAB4F854001C
:10152000A4F84C00B4F84E00B4F85610884203DD1D
:10153000B4F85600A4F84E0038BD70B505460E4606
:10154000144629880A463088104482B2914206DD4A
:10155000994203DA1A46501E82B200E021469942AF
:1015600001DB002070BDA24201DC0020FAE7A142AD
:1015700000DA21469A4200DD1A462980501A82B2CA
:1015800032800120EEE72DE9F84304460E46154669
:101590001F46DDF82080E08F281A85B2CDF8008044
:1015A0003B462A4631462046D4F82CC0E047BDE8E9
:1015B000F8832DE9F84305460E4691461F46DDF8AF
:1015C0002080B5F84440A01B84B208F0010010B997
:1015D000E01B84B201E0601E84B23B464A462146CD
:1015E0002846CDF80080FFF7CEFFBDE8F8832DE94F
:1015F000F84304460D4616461F46DDF820803B465C
:10160000324629462046CDF80080FFF7BCFFBDE8F2
:10161000F8832DE9F84F06460F46904699460A9DF5
:10162000BA46B6F84640A4EB080084B2601E84B205
:10163000681CC5B2022D05D1A4EB090084B2601C60
:1016400084B200254B465246214630460095FFF7AE
:101650009AFFBDE8F88F2DE9F84F06468946924675
:101660001F46DDF82880B6F84650A5EB0A0085B283
:10167000B6F84440A4EB090084B2B8F1000F04D1DD
:10168000681E85B2E01B84B206E0B8F1010F03D1F9
:10169000601E84B2E81B85B23B462A46214630468E
:1016A000CDF80080FFF76FFFBDE8F88F2DE9F84F08
:1016B00005460E4617469846DDF82890BA46B5F816
:1016C0004440A01B84B2B9F1000F09D1601E84B25E
:1016D000A4EB080084B2601C84B24FF0010903E05F
:1016E000601E84B24FF00009434622465146284608
:1016F000CDF80090FFF747FFBDE8F88F2DE9F843DC
:101700000546894616461F46DDF82080B5F8464056
:10171000A01B84B208F0010010B1E01B84B201E00C
:10172000601E84B23B46224649462846CDF80080DA
:10173000FFF729FFBDE8F8832DE9F04706460F467D
:1017400090469946304600F0B1FF4FF0000A00BFC6
:1017500099F8001030467268904705464FF6FF71C1
:101760008D4200D12CE009F101094FF6FE7085424F
:10177000EED02B46424639463046FFF7A2FC0446DF
:101780007020805D30B1012807D002280AD00328DC
:1017900010D10AE0381987B20CE008EB04001FFAF8
:1017A00080F807E0381B87B204E0A8EB04001FFABA
:1017B00080F800BF00BF0AEB04001FFA80FAC7E7F9
:1017C00000BF5046BDE8F087014600207047F0B5E5
:1017D00007460C462146384600F00BF845B2012674
:1017E000601EC4B206FA04F046B2A81B45B22846F1
:1017F000F0BD70B502460C46117B1568287808418B
:101800000B461D19EBB2082B0EDB08256E1AF5B23C
:101810001668761C166016683678AE400643F0B23D
:10182000A3F10806F3B200BF0125A5406D1E2840B4
:10183000137370BD2DE9F34F85B0054605F16004C3
:101840002846069900F085F995F96B607A20415D8C
:101850002046FFF7BCFF02907B20415D2046FFF74A
:10186000B6FF83467C20415D2046FFF7B0FF019024
:1018700094F90A00002871DD237C06EB0B01494234
:101880004AB2A0880299FFF7F1FDA080237C06EB05
:101890000B0149424AB2E0880299FFF7FCFDE08063
:1018A000A788B4F80680B946C246207C30B101282A
:1018B0000ED002281AD0032842D12EE094F90A0053
:1018C00048441FFA80F90AEB06001FFA80FA37E055
:1018D000B81B87B2781C87B209F101001FFA80F9A2
:1018E00094F90A0050441FFA80FA29E094F90A009A
:1018F000381A87B2781C87B209F101001FFA80F903
:10190000A8EB06001FFA80F808F101001FFA80F822
:101910000AF101001FFA80FA12E009EB06001FFA33
:1019200080F994F90A00A8EB00001FFA80F808F18A
:1019300001001FFA80F80AF101001FFA80FA00BFC7
:1019400000BF4B46424639462846CDF800A0FFF777
:10195000ADFC20B9019807B0BDE8F08F29E0002068
:101960002072607200BF7620415D2046FFF741FF84
:1019700004907720415D2046FFF73BFF039000BFB6
:1019800000222846049900F016F8012228460399FF
:1019900000F011F801212046FFF72BFF0028EFD1BE
:1019A00094F90900B042DEDB00BF00BFA07B85F8E0
:1019B00092000198CFE72DE9FF5F80468A46934663
:1019C00008F160045546277A94F8099000BFA67A7A
:1019D000F01BC6B20396B54200DA0395A0880290C8
:1019E000E0880190237C4FFA89F279B20298FFF7E0
:1019F0003DFD0290237C4FFA89F279B20198FFF7FE
:101A00004AFD0190BBF1000F0BD0A07B88F892003B
:101A1000207C00904046DDE90213019AFFF782FB2B
:101A20000CE0607B50B9E07B88F89200207C00904D
:101A30004046DDE90213019AFFF774FBB54200DA74
:101A400007E0A81BC5B2002709F1010000F0FF095B
:101A5000BDE700BF7819C7B278B220724FFA89F09B
:101A60006072BDE8FF9F2DE9F04704460D4616461B
:101A70001F464FF00009642005536620065339467F
:101A8000204600F011F88046B8F1000F05D041461D
:101A90002046FFF7CFFE1FFA80F94846BDE8F087E1
:101AA00002460A44107870472DE9F04107460D467A
:101AB000BC6D1734FF2D18DC612D03DB8820C05B63
:101AC000044404E0412D02DB8620C05B044400BFD7
:101AD000607800B908E02078A84202D1A01CBDE8D7
:101AE000F08160780444F3E725E08A20C05B044479
:101AF000A04600BF0021404600F01FF80444022128
:101B0000404600F01AF8064608F10408AE42F1DB40
:101B100000BF26784FF6FF7000EA0626607806437D
:101B200006B906E0AE4201D1E01CD8E7A078044433
:101B3000EFE700BF00BF0020D1E702460A4410785B
:101B4000521C4FF6FF7303EA00201378034498B247
:101B5000704770B505460E4605F16004266000200A
:101B600020737820415D2046FFF743FE40B2A0720B
:101B70007920415D2046FFF73CFE40B2E07295F8C7
:101B80009200A073A07B08B9012000E00020E07360
:101B900070BD70B505460C462046FFF743FB214655
:101BA0002846FFF769FB284600F013FA0021284673
:101BB00000F021FA2846FFF777FA70BD10B5044609
:101BC0008A4209DAA34201DD012010BD9A4201DDFB
:101BD0000120FAE70020F8E7A34205DD9A4201DD83
:101BE0000120F2E70020F0E70020EEE72DE9F047C2
:101BF00004468946DDF82080D1B201F007010126B4
:101C000006FA01FA0AF0FF060027BC4694F892A0F3
:101C1000BAF1010F00DC374694F892A0BAF1010F37
:101C200000D0B446154625F00705D4F800A09AF870
:101C300010A00AFB05FA1FFA8AF5606B2844484495
:101C4000B8F1000F14D100BF90F800A04AEA070ACB
:101C500080F800A090F800A08AEA0C0A80F800A0A2
:101C6000401CA3F1010A1FFA8AF3002BECD132E0E9
:101C700000BF90F800A04AEA070A80F800A090F898
:101C800000A08AEA0C0A80F800A001F1010A0AF01B
:101C9000FF0101F00701A3F1010A1FFA8AF381B9DC
:101CA000B4F83AA0504494F892A0BAF1010F00DCC5
:101CB000012794F892A0BAF1010F0AD04FF0010C5D
:101CC00007E04FEA476A4FEA1A674FEA4C6A4FEA61
:101CD0001A6C002BCDD1BDE8F0870000014608202A
:101CE0000870014870470000D000002070B504461D
:101CF0000D4600212846FFF7D3FE2070012128461B
:101D0000FFF7CEFE607002212846FFF7C9FEA070E3
:101D100003212846FFF7C4FEE07004212846FFF7A0
:101D2000BFFE207105212846FFF7BAFE607106212B
:101D30002846FFF7B5FEA07107212846FFF7B0FE41
:101D4000E07108212846FFF7ABFE207209212846E2
:101D5000FFF7A6FE40B260720A212846FFF7A0FEF8
:101D600040B2A0720B212846FFF79AFE40B2E07203
:101D70000C212846FFF794FE40B220730D2128461F
:101D8000FFF78EFE40B260730E212846FFF788FEF3
:101D900040B2A0730F212846FFF782FE40B2E073E5
:101DA00010212846FFF77CFE40B2207411212846FE
:101DB000FFF7C3FE608213212846FFF7BEFEA08214
:101DC00015212846FFF7B9FEE08270BD2DE9F041EC
:101DD0000446002594F8387094F83960206890F82B
:101DE000118000BF32462946204600F00AF8681CE0
:101DF000C5B2701CC6B2BD4201DA4645F2DBBDE891
:101E0000F0812DE9F84305460E469146286890F882
:101E1000108034466F6B04FB08F084B24FF6FF70FD
:101E200000EAC404274443464A4600212846009756
:101E300000F0B6F8BDE8F88310B51A3050F81A2C47
:101E4000817F4FF6FF7303EAC1014184117C03EAED
:101E5000C1010184C17F03EAC1018184817FC37F05
:101E60001A380B44547CA34204DD537C90F839406B
:101E70001B1B99B24FF6FF7303EAC10130F83E3FD6
:101E800043804388838083880B448380938AC38004
:101E9000D38A03813E3810BD10B504462046FFF7B3
:101EA000CBFF10BD10B504462046FFF7C5FF2068E4
:101EB000808AA4F846002068C08AA4F8440010BDB7
:101EC00010B504462046FFF7B7FF10BD10B5044615
:101ED0002046FFF7B1FF2068808AA4F846002068FA
:101EE000C08AA4F8440010BD10B504460020403458
:101EF0002081A08860812088A0816088E081403CAA
:101F00002046FFF7DDFA10BD10B5044634F8400F47
:101F10002081608860810020A081E088E081403CD1
:101F20002046FFF7CDFA10BD10B50446002042341C
:101F3000E0806088208100206081A08834F8421908
:101F4000884205DB4234A0882188401A6081423CE7
:101F50004034E0882188401AE081403C2046FFF769
:101F6000AFFA10BD10B5044600204234E08060880E
:101F700034F84219884205DB423460882188401ACF
:101F8000E080423C4034A0882188401A60810020D3
:101F9000A081E088E081403C2046FFF791FA10BD27
:101FA0002DE9FC4104460D4616461F46DDF820800B
:101FB0008DF805508DF806608DF80470CDF800801E
:101FC0006B4601220F212046D4F808C0E047BDE847
:101FD000FC8170B5044600231A460A212046A568F4
:101FE000A84770BD70B5044600231A46102120464C
:101FF000A568A84770BD70B504460D4600232A4663
:102000000B212046A668B04770BD2DE9F04104467B
:102010000D4617461E46DDF81880204600F00AF8E7
:10202000A560E7602661C4F81480204600F018F827
:10203000BDE8F0810021016008498160C160016153
:102040004161002180F8231080F826108161FF2172
:1020500080F8241080F8281070470000A12500089F
:1020600070B5044600231A4609212046A568A847F2
:1020700070BD024609B10A2902D14FF6FF707047C0
:102080000846FCE770B5044600231A46192120468D
:102090002569A84770BD13B5044601AA0121204651
:1020A00000F001F81CBD2DE9F04104460D4616462E
:1020B00033462A46172120462769B847BDE8F081F4
:1020C00070B5044600231A46182120462569A84702
:1020D00070BD00002DE9FF4180460C4615461E46A6
:1020E0003746182C30D004DC142C1BD0172C53D1BD
:1020F00004E0192C4BD0202C4ED124E00CE017F832
:10210000011B2948FEF793FB00E000BF2749264842
:10211000FEF7B8FA0028F8D0281EA5F10101CDB2CB
:10212000EDDC3DE001214805FEF794FB204B0FCB91
:102130008DE80F0069461C48FEF7FAFA01211A489B
:10214000FEF7B5FA2CE02BE000BF4FF40031164843
:10215000FEF7D1FA0028F8D101211348FEF7B3FAAF
:1021600000E000BF13491048FEF78CFA0028F8D0B1
:10217000002278210C48FEF751FB00E000BF0B491C
:10218000891E0948FEF77EFA0028F7D008E00121F1
:102190000548FEF7A4FA03E0002004B0BDE8F08192
:1021A00000BF0120F9E70000005400408400070050
:1021B000B4260008010003002DE9F04106460F4651
:1021C00014469846182F1BD004DC142F13D0172F59
:1021D00023D104E0192F1CD0202F1ED10FE045463B
:1021E00006E029783046FEF7E9FE6D1C601EC4B299
:1021F000002CF6DC14E03046FEF760FE10E00FE045
:102200003046FEF793FE96F824103046FEF7D6FED1
:1022100006E03046FEF7A8FE02E00020BDE8F081AF
:1022200000BF0120FAE770B5044600231A461921C1
:102230002046E568A84770BD70B504460D460023EA
:102240002A4616212046E668B04770BD70B50446A0
:102250000D4600232A4615212046E668B04770BD8A
:102260002DE9F04104460D46164633462A4617210D
:102270002046E768B847BDE8F081F8B505460C464A
:1022800000BF2678641C182E21D006DC152E09D03C
:10229000162E08D0172E2CD110E0192E18D0FE2E95
:1022A00027D11CE000BF2078009000239DF800207B
:1022B00031462846EF68B847641C1BE02078009040
:1022C0006A4601212846FFF7CBFF641C12E000BFDD
:1022D00000231A4631462846EF68B8470AE02078BE
:1022E00000909DF800202921284600F0BBF9641CCD
:1022F00000E0F8BDC5E770B5044600231A46182172
:102300002046E568A84770BD2DE9F04104460F4618
:1023100015469846A7F11400062858D2DFE800F0C9
:102320003903181D494D2C48007810B12046FFF79D
:10233000A9FE2046FFF7C4FE00212046FFF7ABFEB2
:1023400029462046FFF7A7FE01202349087040E0F8
:1023500029462046FFF79FFE3BE01F48007810B15A
:102360002046FFF78FFE464608E0324618212046F9
:1023700000F085F9A5F11800C5B21836182DF4DC67
:1023800032462946204600F07AF9002012490870AA
:102390001FE094F82400FF2802D1782084F824005C
:1023A00043462A4639462046D4F810C0E047BDE8E7
:1023B000F0810020084908700BE00748007810B150
:1023C0002046FFF75FFE00200349087001E000206F
:1023D000EDE700BF0120EAE71400002070B50446D5
:1023E00000231A46282120466569A84700231A467B
:1023F00014212046E568A84701224B21204600F021
:1024000031F9206802792921204600F02BF90022B9
:102410004B21204600F026F9206802792921204628
:1024200000F020F901224B21204600F01BF9206822
:1024300042792921204600F015F970BD016002683B
:10244000927C80F8222070472DE9F04105460C4629
:1024500016461F463B4632462146284600F01EF8E7
:1024600010B10120BDE8F081092C09D00A2C0CD153
:102470002846FFF7B3FF07492846FFF7FEFE06E0B0
:1024800005492846FFF7DAFF01E00020EAE700BF30
:102490000120E7E7784F0008A05000082DE9F04739
:1024A0000446884615461E46B8F10B0F09D0B8F110
:1024B0000D0F11D0B8F10E0F21D0B8F10F0F60D170
:1024C0002CE025B932492046FFF7D7FE03E0314919
:1024D0002046FFF7D2FE57E045B92F492046FFF7C7
:1024E000CCFE2068807C84F8220007E02B4920463F
:1024F000FFF7C3FE2068C07C84F8220044E0204639
:10250000FFF7F9FE81212046FFF7A0FE294620466D
:10251000FFF792FE2046FFF786FE35E02046FFF7E4
:10252000EAFE7779F806070E94F822003844C7B21D
:1025300040212046FFF78AFE102040EA271120465E
:10254000FFF784FE07F00F012046FFF775FEB07914
:1025500040F0B0012046FFF76FFE00BF96F80490F0
:10256000D6F800A04FEAC960010E52462046FFF798
:1025700077FE681EC5B2002DF0DC2046FFF753FE43
:1025800002E00020BDE8F08700BF0120FAE700006C
:10259000795000087E500008835000088A500008D7
:1025A00010B50446002010BD2DE9F04104460E464A
:1025B00015461F464D2E2CD00CDC2B2E13D004DCE0
:1025C000292E12D02A2E43D10EE02D2E11D04C2EC2
:1025D0003ED10FE0502E2BD0512E2DD0522E2FD089
:1025E000532E35D130E037E036E00120FEF79CFA7B
:1025F00032E031E035B11A48006840F04000184937
:10260000086005E01648006820F0400014490860A2
:1026100022E035B11248006840F08000104908609F
:1026200005E00F48006820F080000D49086013E0C5
:10263000002084F827000FE0002084F827000BE03A
:10264000002084F8270007E0002084F8270003E03A
:10265000012084F8270000BF00BF0120BDE8F08101
:102660000C0C01402DE9F04104460D4616460023AE
:102670003246294620466769B847BDE8F0812DE912
:10268000F04104460D4616462046FFF719FD40214D
:102690002046FFF700FD33462A46172120462769CA
:1026A000B8472046FFF7EEFCBDE8F081002180F836
:1026B00026107047A08601000000FFBF1000000434
:1026C00000400000E00002020403020405080700C5
:1026D000FF04FF05FF00E201D506D92005005102E5
:1026E00021064151A20222072397925400230A5542
:1026F000CF560D550D5501240B65CF9AC7C8688C70
:102700001C01250644B1127B260954B11653ACD2E4
:102710000827052157222807626FA69A0129086217
:102720006F1253A5002A06227332022B07339196AB
:1027300056022C05214F222D051393322E051151DF
:10274000122F0744B11EDB003008439132921A0168
:1027500031064271B60A3207439132531A330743A6
:1027600091B2F2083408439112D38801350743919E
:1027700032F4083607439132E21837074391325357
:10278000093807439172A41139074391728E003AB8
:1027900006315192023B06414F92043C06327126AB
:1027A000033D063391B2073E0732711215003F0711
:1027B0004271A27200400844B132D41E0141084463
:1027C000B1A6E29801420844B1B2861C0243074315
:1027D0009136B300440844B1B2A21C09450844B183
:1027E00072A43C02460844B132F4CA00470844B11E
:1027F00032741A03480844B112C794014906415182
:1028000032024A07439132E3024B0844B112478A2D
:10281000324C07439112CB014D0845D192D74A3A29
:102820004E0844B112979A014F0844B1A6A24C0A2F
:10283000500844B1B2E24819510A45D132524C31E4
:10284000AD00520744B1F22A03530844B136341A9A
:102850000A54074391B26205550744B112CD21567F
:102860000844B112CDA400570945D19255525D00DC
:102870005807439192CA54590844B112871E025A0C
:102880000844B1326239025B07626FB25A025C09D6
:1028900044B192514619055D07626FA25A035E0664
:1028A0002397D6005F0614AF320260062277120328
:1028B0006106339176046208439112555A0063060B
:1028C0003271B204640743919A561265073391320C
:1028D000D202660843919AD24A006707438F722654
:1028E0000168084391125552016906415192046AE8
:1028F00007526F9693026B07439112D32A6C0641DD
:102900005132026D0835D1A25AAA006E073391A246
:10291000920A6F07339132D2087008438FA2D28A8D
:10292000007107438FB6920C72073271B2120073B6
:10293000073391A692027407439196561475073394
:102940009192D40876073391925405770835D19245
:1029500055170078063391923A7908438F92461CB6
:10296000017A07339122A3007B08638FA6CA1C0556
:102970007C05614F727D09638F22734C49017E078C
:1029800024B79654027F0854B132A439048005005C
:10299000510281085391927252238208639156C367
:1029A000A10683086391D64647008408539192326A
:1029B0003A028508639196333A0286086391D6B944
:1029C00046008707426FB2460088076391D61E6AA9
:1029D0008908539192F250038A08639196F3500349
:1029E0008B08439192328A098C085331D7463101C2
:1029F0008D07527112730A8E0954B112938A6306BD
:102A00008F0A64B1A6625271CC00900964B15A8EEB
:102A100091F208910835D136941A02920A48313F52
:102A2000649A23E71193086391D61E6904940853AE
:102A30009192F248239509639192331A690496089A
:102A40006391D64E6A0497086391962B35029809D4
:102A5000638F92721A3109990A54B112938A3229FA
:102A6000009A0954B112338A72089B050091029CA6
:102A7000050091029D050091029E050091029F05AF
:102A8000009102A008639156E33502A1075271A696
:102A90005302A20963919A321A6904A30963919AB5
:102AA000324A6A04A40A649196548632B500A50994
:102AB00064B19654B9D40CA6065151A204A7086378
:102AC0008F32E29823A80614B91203A90F772F3783
:102AD00054866AA9AC9686692800AA05003103AB22
:102AE00007339136A200AC0623933203AD050031C3
:102AF00003AE0E772F3754866A99AAD2300D05AFF0
:102B00000614B93202B007339532D208B107433107
:102B100097561AB207339522A300B3063275A20660
:102B2000B4062277A600B508432F93D49000B60AC6
:102B300056EF36AEB472CA29B705917312B80500C4
:102B40003103B9063275A20ABA07339532D208BBEF
:102B5000073391224702BC0E670FA3639D324C39A5
:102B60008E8C1200BD0D670FA3639D324C32A78C73
:102B700004BE0E672FA363A9324C398E8C1200BF9E
:102B800005009102C00A64B196515471CC00C1098C
:102B900064B15AAB386600C20A64B1A6625271CC05
:102BA00000C30A64B196545471CC00C40954B112E4
:102BB000938A6306C50964B1A6B18A6306C60A484A
:102BC000313F649A23E711C70954AF32F4885101A9
:102BD000C80A64B196511A23E511C90964B15A8E25
:102BE00091F208CA0A64B1A6E2182A8F00CB0A64DF
:102BF000B112331A23E511CC07627112550BCD07C0
:102C00006271265303CE076391D6D902CF08539140
:102C100092CA1600D00845D176956901D10964B1F0
:102C20009654867119D20A64B1965154512605D32F
:102C30000964B15AAB289302D40A64B1A662525116
:102C40002605D50A64B1965454512605D60A54B1C6
:102C500012938A322900D7063391923AD80C66EF44
:102C60000EE34C52C5992100D90964B19651690E01
:102C700001DA0864B1DA348700DB0A64B1A662467F
:102C8000510E01DC0954B112338A7208DD0864B1B7
:102C9000DA1C7A08DE0A64AF925794236500DF08D5
:102CA000538FA2545A11E008639196333A02E10817
:102CB000639156E33502E2086391D6464700E30A82
:102CC00064919654C6AA5A00E408539192323A028B
:102CD000E5086391D6B94600E60835D136941A0264
:102CE000E707426FB24600E808639196F3480BE9A4
:102CF00009639156C3911600EA086391D61E6901D3
:102D0000EB08539192F2480BEC07527112730AEDE3
:102D1000075271A65302EE085391D6463101EF08CF
:102D2000439192328A09F00A64B126354A23260576
:102D3000F10A649196548632B500F208639196F3D5
:102D40004823F309639156C3914600F4086391D672
:102D50001E6904F50A6491965486AB5A00F608532E
:102D60009192F24823F708539196D14609F80A55F3
:102D7000CF8ED24C716504F9086391962B3502FA17
:102D800009639156C3A44600FB086391D64E6A04BA
:102D9000FC08539192725223FD09738F56C334621B
:102DA00012FE08538F12555A11FF09638F92721A3F
:102DB000310900000004FFFF00007100030203045A
:102DC000030504070D00FE09FE0900017002E40876
:102DD000FB200500EE072107C9C3C7210922071BF5
:102DE000DB476209230EBDC64F294906A53228A537
:102DF0002401240CBDC6573628D9960C5A04251038
:102E00004EC24FA6444914A6612989122D01260DF0
:102E10003EC28F16B56951A2454B00270699DBC704
:102E200000280B4BC3571225512DCA02290C4BC346
:102E300047166551254A22002A0C2ECA4F9449C3D1
:102E4000A44509002B0AADCA57180D5218012C08C9
:102E50009CBECFA264002D068DD2C7202E081BBFBA
:102E60004FB224002F0BCDC2672DCC8A59180230E7
:102E70000D4EC2971625A1C724CA2400310BCDC21E
:102E8000572625614F8300320E4EC2CF9084621ABE
:102E9000665A980E03330D4EC2C7352CCEA9980C36
:102EA0000900340F4EC267A82551254BB26418D3D0
:102EB00004350E4EC2C721AD2C5A9A8AC9900036ED
:102EC0000E4EC2D714A6954513C5644800370C4E64
:102ED000C2C735AC8669988600380F4EC2CF908441
:102EE000C664484263322400390D4EC2CF90843606
:102EF00065498BD1043A0B43BF4FB2E448B224007A
:102F00003B0BC4BE5734E5D8A264003C08CDC26771
:102F1000D6B5033D0826CAC71D1D063E09CDC247CA
:102F2000DAAD23003F0D4EC2CF9084621A56733043
:102F30000240104EC2CF9084A6218994644AE421B5
:102F400001410D4EC2971625A1711844630042122B
:102F50004EC2C72065499664C91065499664C3028C
:102F6000430C4EC2CF90846A8FC9900044124EC267
:102F7000C72065499664499664499664C302450C26
:102F80004EC2C721AD0E515A1D06460B4EC2C72177
:102F9000AD0E51DA0A470D4EC2CF90846AD3106A43
:102FA000CA12480B4EC247E8380CA26300490ACD4A
:102FB000C2C720857D1A044A0B4EC2DF98F692459F
:102FC00013004B104EC247A825512513932CAA2558
:102FD00061004C094EC247DAAFC3004D0B4EC247E9
:102FE000380DD1E2D1314E0D4EC247286E4A24250C
:102FF000DA680C4F0B4EC2CF90847E4C8604500C86
:103000004EC2C7A084C661495B01510E56BECF9027
:1030100084BE4452920C7100520E4EC2C7A084C6A8
:1030200061A945B5240C530F4EC2CF90846A3CC4AD
:10303000A9980C09005409CDC2C72085FD04550A82
:103040004EC247E88FC99000560C4EC247684CA24A
:10305000DE441300570B4EC247E8C5651AA231582B
:103060000E4EC2472826519B16B5846200590CCDDE
:10307000C247A625A5240B3B015A0B4EC2C7352CCF
:103080008AADC3005B09DCBEC7A0F5B7215C0BCDE0
:10309000C247988669310D035D09DCBEC790F5B75C
:1030A000415E089DDA5796D4025F060EBEC70160E6
:1030B0000612E34714610C36C2CF1027C3A8294B70
:1030C00000620D4EC247DAB268A2B8290B00630C49
:1030D00036C2CF90846A31191200640B4EC26FCB96
:1030E000A28D366509650D36C2CF9084C3A086C90E
:1030F0009000660D4EC2D794256938646923006735
:103100000F46BACFA2255934C54312264302680B95
:103110004EC247DAB268A26300690AC5C2578E88F8
:103120009D06016A0CD5BA678E888D9A962C006B25
:103130000D4EC247DA9644D116D592306C09CDC2F5
:103140008FD84F83006D0DB5C287D2A2244AA22426
:103150005A006E0A36C247B268A263006F0B36C2CD
:10316000CF90848EC99000700C46BA47B268E2A630
:103170002C6915710B46BACFA28D9AB2A40D720AB2
:1031800036C247326549DA08730D36C2CF9084895A
:10319000AC84C99000740C46C24F1A0E59DA162D31
:1031A00000750936C247E84D5902760BB5C247662D
:1031B0004B4A491601770BB5C24766499444E90268
:1031C000780C36C247984499A8454918790D46BAF3
:1031D00047E8A62CA9980C09007A0836C2C7B1E3C3
:1031E000307B0CDDBED7125623350BAB037C06C9F2
:1031F000C3C7037D0DDDBEC71AD652290D2B1300A0
:103200007E099DDA4FA4245202A00500EE07A10812
:10321000C9C347320C01A20EC5C657B654942889BB
:1032200092CA1601A30D4EC2D794256938A63565FA
:1032300001A40C36C647980C51A7210903A50F4DD0
:10324000C247A625A52419A46890C208A608C9C328
:10325000C7900C01A70ED4C28F12894A2425A294CC
:103260002800A80794DE472405A9114EC2CF9084F8
:103270008A25522225528CC99000AA0CBDCACF9A29
:103280000C5A32A48300AB0F3EC65F1225511225A3
:103290006112266112AC079DCAC72016AD068CD2FA
:1032A000C710AE114EC2CF90848A255992C5928C18
:1032B000C99000AF068DE2C720B009A4D68F12498D
:1032C0008902B10BBDC657180D52980F02B208B350
:1032D000D24F53521AB309B3D2C794644A05B40605
:1032E00012E38F02B50A3EBE47E8382D5600B613EA
:1032F0004EC2CF3028C9922C9192255992255992CD
:1033000000B7060AD38700B80612BB8F02B908B30C
:10331000D24F22B50CBA0AB4CE8F1249893A04BBF7
:10332000103EC6471226611226511225519201BC49
:103330000E56C24FA8B60D89966449B606BD0D5605
:10334000C24FA83625439286D501BE1056C2C71A71
:10335000C659122591966449B606BF0D4EC2570E46
:10336000A6613514932101C00F56C2579C635A942D
:1033700084E230886200C10F56C25F98835A9484F9
:10338000E230886200C20F56C29716E5901625A15A
:10339000380CA218C30F56C28F6487B42809C561C0
:1033A00010C500C40F56C24FD40E6951128AC320F3
:1033B0008A01C50F56C2971665A21625A1380CA220
:1033C00018C6124EC24F322459922559724BB2245C
:1033D0004B8600C70D5EBACF90846A8FC910D600A5
:1033E000C80F56C2579C23C390A64394A6C300C9D6
:1033F0000F56C25F9843C390A64394A6C300CA0F5A
:1034000056C29716E5C390A64394A6C300CB0E56AA
:10341000C24FD43E0C693A44693A0CCC0BD5C24F2A
:103420009A0F52D86910CD0CD5C2579623831476C3
:103430001A04CE0CD5C25796C48314761A04CF0C46
:10344000D5C247A6A58314761A04D0124EC2C7204F
:1034500065499664439464499664C302D10F56C289
:103460008F640F3725522229D1C600D20D56C2577C
:103470009C4343127A4C8604D30D56C25F98634333
:10348000127A4C8604D40E56C29716E5C890841E54
:10349000932101D50E56C28F64478624F4980C09F7
:1034A00000D60E56C24FD48E0C49E831191200D7FF
:1034B0000C36C647984499A8454918D8145EBE6F83
:1034C0003224D9944889122991126DC990A400D947
:1034D0000C56C2579C23A18FC99000DA0C56C25FCC
:1034E0009843A18FC99000DB0C56C29716E5A18FB7
:1034F000C99000DC0C56C24FD41EFA980C0900DDAE
:103500000BD5C25F3DD3925AD804DE0D4EC2473A66
:1035100028A17158D22A00DF0ECDC28F5489925251
:103520001255328B02E00E4EC2579C43439C0CA3B3
:10353000A62C01E10E4EC25F9863439C0CA3A62CFF
:1035400001E20F4EC29716E5C81027C3A8294B0009
:10355000E30E4EC28F6447863819464D5902E40E79
:103560004EC24FD48E0C71328C9AB204E50F56C203
:103570009716653A34C4C9306ACA12E60D36C28F4E
:103580001226C930B5244A02E70D46BACF90846AA4
:103590003119C21A00E80F4EC2579C4343120E83E2
:1035A0001A264302E90F4EC25F986343120E831A34
:1035B000264302EA104EC29716E5C89084C3A0863F
:1035C000C99000EB104EC24FD48E0C49380C6A984B
:1035D0000C0900EC0ACDC24F9A2362A741ED0ACD37
:1035E000C257964362A741EE0ACDC28F54173B0DD6
:1035F00002EF0BCDC2479444B9D86910F01056C2FF
:103600004F9469491C0D49E8980C0900F10B4EC212
:103610008F644F164D740CF20D4EC2579C434312EB
:103620003A264302F30D4EC25F986343123A264393
:1036300002F40E4EC29716E5C890848EC99000F52C
:103640000D4EC28F64478624744C8604F60E4EC21B
:103650004FD48E0C49E8980C0900F70ABDC657985C
:103660000F7A1801F80F46BE6F3224D99428D196EC
:103670000C490AF90B4EC2579C23A1376509FA0B76
:103680004EC25F9843A1376509FB0B4EC29716E502
:10369000A1376509FC0B4EC24FD41E7A539600FD2C
:1036A0000F5EBA5F9843A19BB2A462322400FE0E63
:1036B00056BA475A593451DC94254D01FF0E5EBA73
:1036C0004FD41EBA294B2A26430200000010016481
:1036D00005F301C9059702300619FFFF01001056D6
:1036E000C2CF90435A9484E23088C60001010F464D
:1036F000C2CF9023439C0CA3A62C0101021156C2F9
:1037000047980C39A44549280E8328060103104E1A
:10371000C247980C3932C4C9306ACA120104135F17
:10372000BA971815933009936109933009D35C0156
:10373000051047BACF90478312266134A8B900011B
:10374000060F56C25F98634312AA8DC99000010705
:103750000E4EC2671D1A92502D26430201081056C4
:10376000C29716E5C890846A633224000109104E9E
:10377000C29716E5C890846A31191200010A0E56E4
:10378000C2970E0D49A8764C8604010B0E46C297CF
:103790000E0D49A816932101010C1056C24F94E951
:1037A000D090846A63322400010D104EC24F94E918
:1037B000D090846A31191200010E1356C24F94E959
:1037C000C82065499664499664C302010F0F56C22A
:1037D0004F94E969B268A34D59020110134EC2C754
:1037E0002065499664439464499664C302011112AA
:1037F0004FC26F38A4D15253C2244C3269490001E0
:10380000120F4EC2CF900F439A0E519A0E0301131E
:103810001046C2CF902343120E831A26430201148E
:103820001056C247980CF930A4E910A5E9300115EB
:10383000124EC247980C393224E130A8613224007C
:1038400001160F56C2978E0C439A0E515A1D06014F
:10385000171046C2970E0D49380C6A980C090001E2
:10386000180F5EBAC721AD0E515A1DA65801011995
:103870001046BACF9084C3A086C910C51200011AA1
:103880001056C24F94E9C830A4E910A5E930011BD5
:10389000114EC24F94E9D09084C3A086C990000114
:1038A0001C1156C29716E5C890846A34849AB204F3
:1038B000011D135EBA9716E5C8A2255934C54312F7
:1038C000264302011E1256C247980C393224A11A0F
:1038D0000DA1A62C01011F145EBA47980C39B268DD
:1038E00049164DF19084C9900001201056C2970EE0
:1038F0000D49A896865053960001211256BA970E8C
:103900002D5A9245533C24613224000122115EBAA3
:10391000CF90846AD3106ACA928519000123136676
:10392000BA5F98EAD0A2255934C543122643020152
:10393000240E56C29716E5A1711844630001250DA7
:1039400056C29F16A92D8B261A030126154FC24F6A
:103950001665C930245934485994455994250001B5
:1039600027124EC24F3848692249499664499664E5
:103970000101280DD5C24FA4C88314761A04012969
:103980000BCDC24FA4E862A741012A0CD5C2C7A043
:103990000E52D8D320012B0BC5C2C7208B9D060128
:1039A000012C0DD5C24796CC8314761A04012D0B39
:1039B000CDC24796EC62A741012E0DDDBAC7208526
:1039C0007D1A945401012F0DD5BA578E889D062576
:1039D000550001300CD5C2573E48614F830001317C
:1039E00009B5C28FD869100132134EC247346449F9
:1039F00096644996644996748A0001330ED5BA4795
:103A000096469B975292250001340E56C29F16E5AA
:103A1000D098B664D10401350F5EBA9F16E590DAEE
:103A2000254BB268020136135EBA47A8255125130B
:103A3000932CAA256112A6000137115EBA47DA96C7
:103A400044D116D5923009530001380E3EC247A822
:103A50002551B445B5240C01390C56C24F988369E1
:103A6000AFC300013A0CD5C2579643624F830001A1
:103A70003B0C5EBA47DAAFC3166600013C0CDDBAF8
:103A80008FD84F83946500013D0C56C24794E9508E
:103A9000DAEB30013E0CD5C24714E988D8D32001B7
:103AA0003F0B4EC247DAD4B53A0C01400C4EC28FE0
:103AB000DAD4B536280001410C4EC24F5AC9ACAD1C
:103AC000830001420C4DC28F58898C4D8300014305
:103AD0001056C25F9843E1A6444A2425DA180144EF
:103AE0000D4EC25F9843C9A2898E010145105EBA8E
:103AF00047286E4A2425DA684CC21401460D46BA9E
:103B000047B268A26312A60001471156C24F94E95A
:103B100048B82991124989360601480E4EC24F9481
:103B2000E948B268A2630001491256C2871AE668E2
:103B3000224949966449966401014A105EBA4728B1
:103B40006E4A2425DA684C3305014B0D46BA47B25C
:103B500068A2639A2900014C0E4EC2CF90234312F3
:103B60007A4C8604014D0E46C2CF902343123A266A
:103B70004302014E1056C247980C393224A1C76443
:103B80004800014F104EC247980C393224A16332CD
:103B9000240001500F56C25725CA9121093D2643E2
:103BA0000201510F4EC25725CA9121091D932101CF
:103BB00001520D4EC2CF30F569887A1B0401530EB5
:103BC00036C28F524AA4216A49940401541056C245
:103BD0005F984383128AC312D5923001550E4EC2AC
:103BE0005F9843C994256923000156125EBAC7A0A5
:103BF00084C66150B2A8968449980201570C46BA0F
:103C000047326549DA310501581156C24F94E9C867
:103C1000A084E2B044B5240C01590E4EC24F94E981
:103C200048326549DA08015A1056C25F9863431258
:103C3000CA432C264302015B104EC25F98634312B5
:103C400026B212264302015C1156C29716E5C890AF
:103C500084F2108BC99000015D114EC29716E5C821
:103C6000908489AC84C99000015E105EBACF9084C4
:103C70006A3CC4A9980C610D015F0F46BACF9084CD
:103C800089AC84C910D60001601156C24F94E9D0A6
:103C90009084F2108BC990000161114EC24F94E9DB
:103CA000D0908489AC84C9900001620CDDBAC72031
:103CB00085FD9A450001630E56BA4F1A0E59DA1661
:103CC0008D350001640CD5C24F14C98314F604016C
:103CD000650F56C24F94E9503864695BB4000166C1
:103CE0000DCDC2C72085A5410A9B0001670F4EC2BA
:103CF0004F3864693864692D5A0001680C56C28FC8
:103D0000640F7D4C860401690C4EC28F640FBD297F
:103D10004B00016A0C4EC2CF90873E264302016BD6
:103D20000B46C2CF9087DE9425016C0E56C2479891
:103D30000C79E863322400016D0D4EC247980C796E
:103D4000E84D5902016E0E56C297166552E863326D
:103D50002400016F0E56C29716653A127A539600E8
:103D600001700D56C25725CA431F93210101710CE2
:103D70004EC25725CA436FCA1201720D5EBA47E898
:103D80008FC990C5110001730C46BA47E84D59A27E
:103D9000380201740E56C29716E5A1C5651AA23104
:103DA00001750FCDC25796C499255112A50B00017C
:103DB000760ED5C25796C49996D4C22600017710C4
:103DC0005EBA9716E5A19BB2A46232240001780E78
:103DD000D5C247A6A59996D4C2260001790C56C231
:103DE0005F9843C3D8EB30017A0C4EC25F9843C34F
:103DF000D87118017B0C56C2978E0C6BD8EB300132
:103E00007C0B46C2978E0C63C761017D0D56C24F75
:103E100094E9C830F63A0C017E0D4EC24F94E9C8C1
:103E200030761C06017F0B4DC29754C9C4DE0001D9
:103E300080134EC24F3864E9106549966449960C68
:103E4000090001810E4EC2C7A0453D6D514F0B00C8
:103E50000182104EC2C720A5D521CA922CC9860561
:103E600001830F4EC2C7A0A4954513C54D5900014B
:103E7000840D4EC257A85DB7A89721010185114E48
:103E8000C24FE822494996648994240A0001860EAB
:103E90004EC2CF908469573119120001870F57C263
:103EA000AF32286112F7180D110001880E3FC2AF22
:103EB0003228611217A321020189134EC2C720655F
:103EC000499664439464499664C302018A0C4EC2C5
:103ED000C7A045FD3F2D00018B0D4EC2CFA05686D9
:103EE000D1311904018C0DCDC2CF10564C9B4951D4
:103EF00002018D0E46BACF90848EC910D5240001E0
:103F00008E0C4EC2C7B56948ABC310018F104EC2AC
:103F1000CF9084693A0CA23119120001900F4EC261
:103F2000CF90846A3CA5C564480001910D56BECF70
:103F3000A0A4D52D6D4C0101920F56BE9F1655C3FE
:103F4000214B6B49180201931156C2A73224599292
:103F5000B62C591259120001940E56BE47684CA255
:103F6000DEB4A84D020195104EC2475A95929212A6
:103F70002991125900019609CCC287D68F02019768
:103F80000DCDC2C72085B52D2C0D020198134FC24F
:103F9000479864891429A19A8451560A13000199FB
:103FA0001056C28F16556B49146D512D0903019A95
:103FB0000CCDC28FD83448616910019B1356C26F73
:103FC000A284A196449196644994255900019C13BA
:103FD000CDC24792288992288992288992282D0259
:103FE000019D1356BE4F966489947452B2244BB20D
:103FF000245301019E0B46BA47B268A2635A019F3F
:104000000E36C2CF9084C3208AC9900001A01557F4
:10401000C27732246212266112266112266134446C
:104020000001A1103FC2773224621226611246437A
:104030000401A21456BE8F16295122255222255260
:10404000222589940601A31046BA8F1629512225EC
:10405000529248690101A40D4EC2C7A0453D6D6949
:104060001B0001A51156BA6F982492946489942478
:10407000525A0501A6115EBE479A0E4A280E8B9829
:1040800064512D0E01A7104EC2CF9084696548D2AD
:104090006232240001A80E36C2CF908499A485C94B
:1040A000900001A90B4EC2C7216E6C1D0601AA0D1E
:1040B000DDC24F966462BF64090001AB0F56BA4F70
:1040C0001A0E59DA160D69A60001AC0A4EC2CF309D
:1040D000B5F60901AD0E56C2971655C3214BDBA2AA
:1040E0000501AE0C5EBAC7A0A5FD29530001AF13B0
:1040F0005EC26FAA6D499664499664499664D1047C
:1041000001B00F46C26FAA6D499664496449000127
:10411000B10D4EC24FD4127A4CA24C0201B20E4ED7
:10412000C247966449E83189320901B30E4EC2474D
:10413000986451922561DA0901B4124FBAB7988494
:10414000499864D212276134440001B50D4EC2C7AC
:1041500035AC0D59581D0601B60C36C2C7311AB21E
:10416000301C0601B70E4EC2C72016E7AA980C09EC
:104170000001B80F4EC2CF20C5E114A6C5644800A7
:1041800001B90E46BAC7250EA7B4980C090001BAAA
:104190000E46BAC7B1284753980C090001BB104E10
:1041A000C2CF9084621A26C312A6C30001BC0E4E71
:1041B000C2C7215465391693210101BD0AB4C2C793
:1041C000209A120501BE0DCDC257986DA11A6AC979
:1041D0000201BF0F46BA47B2685A125532314D013B
:1041E00001C007C9C3C70301C1094BC347E25F024E
:1041F00001C20C4BC34F54599225AA0001C308C9F0
:10420000C3C7210901C4115EC25F12E6CA90444AC5
:10421000FF2225923201C5114EC2879228DD9241BC
:104220008994BE48CA0001C6104EC297122559385B
:104230002C91D2176D1001C70C4EC247E84FC990A0
:10424000240001C8105EBA471AAAD9E838285912C2
:10425000260001C9145EBA879A2569A46449966448
:1042600049364469A60001CA144FC247944CD11282
:1042700029921449911459A4240101CB165FBA471D
:104280009445D1922592144991144991548B420539
:1042900001CC1156BA6F2C2D911229911229519BE4
:1042A0000201CD1056C24F94E9981625A1380CA2F0
:1042B0001801CE104EC24F94E9D01027C3A8294B45
:1042C0000001CF0CD5C24F2D1FA4B0D32001D00CBC
:1042D000CDC24F2D47C44E830001D10F56C24F941B
:1042E000E9D090841E93210101D20F4EC24F94E970
:1042F000D090848EC9900001D30E56C24F94E948E5
:10430000E86332240001D40D4EC24F94E948E84DD1
:10431000590201D50F5EC2CF9023511EFA980C09A5
:104320000001D60E56C2CF9023511E7A539600013B
:10433000D70D5EC25F98D5431F93210101D80C565B
:10434000C25F98D5436FCA1201D90D5EC24F31AB1F
:10435000873E26430201DA0C56C24F31AB87DE940A
:104360002501DB0D5EC24F9CD5431F93210101DC6B
:104370000C56C24F9CD5436FCA1201DD0E36C2CF18
:104380009084E93088C9900001DE125EC2CF90238C
:10439000510E6951128AC3208A0101DF1156C2CF22
:1043A0009023518E0C71328C9AB20401E0115EC2DE
:1043B000CFA04339A64549280E83280601E11056AF
:1043C000C2CFA0433934C4C9306ACA1201E2135EB5
:1043D000C2CFA00F4B96644996DC922CC992210162
:1043E000E31046C2CFA02B61920C534BA2240001D4
:1043F000E4124FC2CF1085495C5AC2241AC468889F
:104400000001E51147BACF528BB26CCB87281A92C4
:10441000210201E6115EC24F94E9D090846A6908D6
:1044200035650901E7135EBA4F94E9D0A2255934E6
:10443000C5431226430201E8135EC24F9449A19678
:1044400044954C4CB2A896840101E9115EC24F9488
:1044500049695B12455B544BC20001EA0E5EBACF5C
:1044600090847E4C862C950001EB0E46BACF90844A
:104470008EC990A5120001EC106EBACF90234312A2
:10448000FA3119B2540201ED1056BACF90234312FB
:104490003A2643964A0001EE105EC24F94E9C830B6
:1044A00016E7544C860401EF105EBA4F94E9C83009
:1044B00016E7544C860401F00F5EBA574DC7D42E50
:1044C000599245130001F1114EC2873224911229ED
:1044D000FD8B9448CA0001F2114EC2879864499638
:1044E0000C4AA4F445520601F30E4EC2575A1C96CC
:1044F00048E98B360801F4105EC25F98634312AA44
:10450000A521D4942501F5135EBA5F98638B966458
:10451000D1140F49980C090001F6124EC247D4D3AA
:104520009048899448899468090001F7104EC24761
:10453000B268A29644954C4C530001F81056C257ED
:104540009C23E1A6444A2425DA1801F90D4EC257EE
:104550009C23C9A2898E0101FA115EC25F986A513B
:10456000266A51120E83280601FB115EC25F986A0B
:1045700051A60D71328C9AB20401FC135EC25F9891
:1045800063C3922559724BB2244B860001FD104E35
:10459000C2671D52C22419A69644490001FE166640
:1045A000BE5F9823C990645322254AA4445B3224F9
:1045B000290001FF1356BE5F9823C9906453A2449B
:1045C0005B322429000200115EC247944539A4459C
:1045D00049280E83680C0201104EC24794453932B7
:1045E000C4C9306ACA120202115EC2CF908439A2D5
:1045F0004549280E83680C0203104EC2CF9084F9FF
:104600001027C3A8294B000204105EC2479445F945
:1046100030A4E910A5D5610205124EC24794453970
:104620003224E130A8613224000206105EC2CF902D
:1046300084F130A4E910A5D5610207114EC2CF90D4
:1046400084F99084C3A086C9900002080CD5C247A3
:10465000D43A4861A74102090BCDC247D42C761A3F
:1046600004020A0DD5C2CF92A58314761A04020B58
:104670000BCDC2CF92C562A741020C105EC2479417
:1046800045393224A18FC99000020D104EC24794C3
:1046900045393224A163322400020E0F5EC2CF904E
:1046A00084F990843E264302020F0F4EC2CF9084BD
:1046B000F990848EC9900002101156C2479445F9B2
:1046C000A084E2B044B5240C02110E4EC2479445BA
:1046D00079326549DA0802121156C2CF9084F1A0EE
:1046E00084E2B044B5240C02130E4EC2CF90847104
:1046F000326549DA0802140E56C247166571E8633E
:1047000032240002150D4EC247166571E84D59025C
:1047100002160E56C2CF908471E86332240002174D
:104720000D4EC2CF908471E84D59020218105EBA46
:10473000CF90846A3CC4A9980C610D02190F46BA47
:10474000CF908489AC84C910D600021A0CDDBAC798
:104750002085FD9A4500021B0E56BA4F1A0E59DAF3
:10476000168D3500021C0E4EC2C72016E7AA980C03
:104770000900021D0D46BAC7B138A76232240002F3
:104780001E0E56C24F94E948681C06D118021F0E2F
:1047900056C24F944969CBA289C6000222104EC26C
:1047A0004F9484C66448426332240002230DC5C27C
:1047B0004F9B962C992D590002240E5EBAC7352CBA
:1047C0008AADC39A290002250C46BAC7B1E3B06688
:1047D0000A0002260F56C2978E6951128AC3201A08
:1047E0000302270E46C2970E0D71328C9AB2040254
:1047F000280F5EBAC721AD0E515A1DB64C030229CF
:104800001046BACF9084C3A086C990661200022ACF
:10481000115EC2CF9023518E0C49E831191200026B
:104820002B1156C2CF9023518E0C49E8980C0900E9
:10483000022C115EC2CF902551924343127A4C86CE
:1048400004022D125EC2CF90434994E4D090848E2E
:10485000C99000022E0E5EC2970E0D49E8C764484B
:1048600000022F0E46C2970E0D49E8980C0900026F
:1048700030105EC2CF90433A3424A1C7644800028E
:10488000311056C2CF90433A3424A163322400023F
:10489000320DDDC2C7A0665A520B7B0202330F569F
:1048A000BACF90876ECA928AC9900002500D36C264
:1048B00047B268E2B0C4430202510B36C2CFA28DA8
:1048C00036650902520D36C247B268A2B8290B00FC
:1048D00002530E4EC2CF9456164D14376501025442
:1048E0000D36C2CF9084692A2643020255103EBE7F
:1048F000CF90846A9644493264190002561157BE1B
:10490000675C1BA22CCAA22CCAB221170257134FF4
:10491000C26F254C9221CAA22CCAA22C1B220002D3
:10492000580E36C2CF9084C3908AC9900002590EA7
:1049300036C2CF9084E93088C99000025A0D37C240
:10494000CF56560645CB3600025B0D35C2CF9225B9
:104950005298250B00025C0C35C2CF9245AA962CCA
:1049600000025D0D37C2CF9699C228CB3600025E99
:104970000D35C2CF92294AA6250B00025F0E4EBA12
:1049800067DA368469924513000260114FBA77B234
:10499000D4A22CDBF2210AA3210202610F46BACF76
:1049A000A28D9AB2A46232240002620E36C2CF9067
:1049B000846A3484C9900002630EC5BA47664B4AC4
:1049C0004956C9220002640CB5C247A625B54A164D
:1049D0000102650B4EBA47E84D59D20602660D56E4
:1049E000C2CF90A42D8B263A0602670F66BACF90ED
:1049F000A42D8B263AA6D10202680DC5C2578E8817
:104A0000D12085D12002690AB4C247D629510002BB
:104A10006A09B3C2C712B50C026B0CCDC28F5853D2
:104A20006C616910026C0ECDC28F5893926C88C273
:104A30006810026D0BDCBA87D6BF440900026E0E07
:104A40005EBA47DAB268A22D8F320D026F0EB5C280
:104A500047A6244AA2244A8B0002700EC5BA47A674
:104A6000244AA2244A8B58027110C5BA87D2A224C4
:104A70004AA2245A982C000272103EBE4F22494985
:104A800096644996642A000273103EBE4722494943
:104A90009664499664710002740D36C247B8299134
:104AA0009468630002750E36C2CF9084C3208AC911
:104AB000900002760C36C2CF309586A86D10027732
:104AC0000D35C2CF92298992285D0002781155BA1E
:104AD00057982D15255112A5B285110002790B3674
:104AE000C267DA92454B00027A0B4EC267DA972C06
:104AF0005A02027B0B46C267DA1259D238027C0C8A
:104B000046BA47326549DA2300027D0D46BA47327C
:104B10006549DA299300027E0AB5C2CF92898D00D9
:104B2000027F09B5C2CF92851D02800D35C2C790A4
:104B300064DAA044491602810D35C2472625439206
:104B400069830202820F46BACF908489AC84C31273
:104B50006B0002830DDDBA5F250AFB946419000225
:104B6000840E5EBA6F98761BC234C9A20902850C06
:104B7000DDBA4F9684FD254B0002860EDDBA5F2517
:104B80000ABB2D1525CB0002870D46C2CF94A56D1B
:104B90004398260002880D56BA4F1A0E59DA5BB4B4
:104BA0000002891037C24F1665C930245914694A6A
:104BB00002028A0E36C287A44449282651260102E1
:104BC0008B0B36C24796846ED104028C0BB5C2574C
:104BD000964449CD16028D0CB5C24F172551124D82
:104BE0000B028E0F4EC267250BD3708B922C0903DC
:104BF000028F0BB5C24796D4C2260002900B47BA6B
:104C0000C7B5EB20E70202910C3FBEC7B5A96518F6
:104C1000C20C02920D46BAC7B138A7623224000214
:104C2000930E47BAC7B5BA47C31046430402940C63
:104C3000CDC2CF9285252D6C0202950BCDC2CF92AD
:104C400089A9D80902960CCDC257D8A8865AB200B5
:104C500002970CCCC28F12693D250A0002980D36CE
:104C6000C2CF90848AC764480002990D35C2C790AC
:104C7000648392698302029A0C35C2CF9225362D45
:104C80005900029B103FC2AF32446112474B180DCE
:104C90001100029C0B35C247A60D43660B029D0E08
:104CA00056BA678EA94DC39664D104029E0E4EBAC1
:104CB000479864516DAA646903029F0935C247D8B9
:104CC000711002A0104FBAAFA24491944591A6C4AE
:104CD0004D0002A10ECDC2CF9285252D1AA430021F
:104CE00002A20ECDC2CF9289A9180D52180102A3BB
:104CF0000E4EC2575A1C9648E98B360802A4135F21
:104D0000BA575C1D9452D2940C492DD1D250020254
:104D1000A5105EBA575A1C9648E9CB900C6209025E
:104D2000A60F46C24F1A0E52D22DAA450B0002A75B
:104D3000155FBA6F5429458316655116655116855E
:104D4000499A0102A80F46C24F1A0E52D22DC9929B
:104D5000D20202A90F5EBA971655C3414AFA5F33D1
:104D60000502AA0F4EC287DA2249492D8AA46101A1
:104D700002AB0F4EC2875A1D942C892A99360C0219
:104D8000AC0DBDC24792289D9344E90202AD0AAD25
:104D9000CAC72D1DB60002B00AB3D247142989250F
:104DA00002B10AB3D24F49492C0102B20ABACA4F22
:104DB0009654140002B30AA3D247B244110002B4BD
:104DC00008A3D257650902B50AB4CA571629B530E7
:104DD00002B60DB4CE47A4244B240D090002B70936
:104DE00025D24766E90202B80AB3CA476249A40558
:104DF00002B90922D74FA2240002BA0CA5D64F94BB
:104E0000445212250002BB0A26D64F2F4A2F000219
:104E1000BC081ADB87A20002BD071ADBC71420807A
:104E200009B3BA4FC5A502208109B3BA4F22B50C08
:104E3000208209B3BA4F53521A20830AB3BAC794D7
:104E4000644A0520840BB4BA5764A90C510220852A
:104E50000AB3BAC71069D10220860AB3BACFA42414
:104E60004A0520870AB3BAC754892A00208809B3A3
:104E7000BA4F2F4A0520890AB3BA4F4549A40520E5
:104E8000AC104EC2D79425E19085439666D102219D
:104E9000030F5EC24F9884B916553B650A0021097D
:104EA0000F5EC24F9884F110A5E996B601FB00127F
:104EB0004FC2578B52CAA268986A5116655104FBBB
:104EC0000110CDC2975409A361899228899228FBC9
:104ED00002134EC2975252B2241B86244BB2244B6B
:104EE000B200FB03124EC24F9424A6966190122981
:104EF00091122909FB04124FC24F9458A6488A8682
:104F0000532445522415FB05134FC29718655116BB
:104F100045CB1265511625B504FB06134FC29F9869
:104F20008449A60C59294CC224D912000000000063
:104F3000991E0008E91E0008EF150008A51E0008CC
:104F4000091F000813160008C11E0008291F0008C9
:104F500057160008CD1E0008651F0008AD16000892
:104F6000991E0008E91E0008B3150008991E0008E4
:104F7000E91E0008FD1600081815AE15D516801597
:104F8000A8163F15D316001540158D1614152016BA
:104F90000015A115C815DA1612158116CF15D916E8
:104FA000F115DB1640152E15A415A619FF1815AE20
:104FB00015D5168015A8163F15D316001540158D6A
:104FC00016141520160015A115C815DA161215812C
:104FD00016EF15D916A115DB1600152E15A415A66A
:104FE00019FF1815AE15D5168015A8163F15D3163E
:104FF000001540158D16141520160015A115C8159D
:10500000DA1602158116CF15D916F115DB164015E3
:105010002E15A415A619FF1815AE15A415D51650F2
:1050200015A8163F15D31600154015AD168B15D9CA
:10503000162215DB16351532158116FF15A615DA61
:10504000161219FF1815AE15D5168015A8163F159E
:10505000D316001540158D16141520160015A11530
:10506000C015DA1612158116CF15D916F115DB16F3
:1050700040152E15A415A619FF1815AF19FF181500
:10508000AE19FF1815A115C819FF1815A015C019DC
:10509000FF1815A115C019FF1815A015C819FF0094
:1050A0000001140A6464323200127A000004289667
:1050B00010080000800040000001140A64643232CD
:1050C00000093D00000428961008020280004000FC
:1050D000F0500008000000201C000000340C000804
:1050E0000C5100081C000020B4080000440C00080B
:1050F000000000000102030401020304060708097E
:0C5100000204060800000000000000008F
:04000005080000ED02
:00000001FF
