:020000040800F2
:100000000808002045010008210300081903000822
:100010001D030008B1010008C5050008000000002C
:100020000000000000000000000000009503000830
:10003000B501000800000000230300088104000847
:100040005F0100085F0100085F0100085F01000810
:100050005F0100085F0100085F0100085F01000800
:100060005F0100085F0100085F0100085F010008F0
:100070005F0100085F0100085F0100085F010008E0
:100080005F0100085F0100085F0100085F010008D0
:100090005F0100085F0100085F0100085F010008C0
:1000A0005F0100085F0100085F0100085F010008B0
:1000B0005F0100085F0100085F0100085F010008A0
:1000C0005F0100085F0100085F0100085F01000890
:1000D0005F0100085F0100085F0100085F01000880
:1000E0005F0100085F0100085F0100085F01000870
:1000F0005F0100085F0100085F0100085F01000860
:100100005F0100085F0100085F0100085F0100084F
:100110005F0100085F0100085F0100085F0100083F
:100120005F0100085F0100085F0100085F0100082F
:10013000DFF80CD000F02AF80048004777070008E5
:10014000080800200648804706480047FEE7FEE70B
:10015000FEE7FEE7FEE7FEE7FEE7FEE7FEE7FEE777
:100160008504000831010008D2B201E000F8012B3B
:10017000491EFBD270470022F6E710B513460A4627
:1001800004461946FFF7F0FF204610BD064C074D08
:1001900006E0E06840F0010394E807009847103457
:1001A000AC42F6D3FFF7C8FF5823000878230008B5
:1001B00000BFFEE770472DE9F0410246002500260A
:1001C000002000230024002791F803C00CF00F0545
:1001D00091F803C00CF0100CBCF1000F03D091F8A3
:1001E00002C04CEA050591F800C0BCF1000F31D007
:1001F000146800202BE04FF0010C0CFA00F3B1F86A
:1002000000C00CEA03069E4220D183004FF00F0C81
:100210000CFA03F7BC4305FA03FC4CEA040491F81A
:1002200003C0BCF1280F06D14FF0010C0CFA00FC02
:10023000C2F814C00AE091F803C0BCF1480F05D120
:100240004FF0010C0CFA00FCC2F810C0401C08284A
:10025000D1D31460B1F800C0BCF1FF0F34DD546895
:1002600000202EE000F1080C4FF0010808FA0CF312
:10027000B1F800C00CEA03069E4221D183004FF082
:100280000F0C0CFA03F7BC4305FA03FC4CEA040418
:1002900091F803C0BCF1280F05D100F1080C08FA51
:1002A0000CF8C2F8148091F803C0BCF1480F07D1D4
:1002B00000F1080C4FF0010808FA0CF8C2F81080A1
:1002C000401C0828CED35460BDE8F08141617047DE
:1002D000016170470548806940F004000349886166
:1002E0000846806940F480408861704700100240F1
:1002F00000B5FFF7EFFF074800686FF30B000549F3
:1003000008600846006840F29141084301490860CE
:1003100000BD00000408014000BFFEE700BFFEE78B
:100320007047704729B1064A92690243044B9A61AB
:1003300004E0034A92698243014B9A6170470000CE
:10034000001002401248006840F4803010490860F4
:100350000846006840F08070086000204860084649
:10036000406840F0020048600846406840F4803031
:1003700048600846406840F4806048604FF0E020E4
:10038000006940F004004FF0E02108617047000070
:1003900000100240704710B500F002F810BD0000D8
:1003A0000CB50020019000903348006840F4803084
:1003B0003149086000BF3048006800F40030009008
:1003C0000198401C0190009818B90198B0F5A06FF1
:1003D000F1D12948006800F4003010B101200090EC
:1003E00001E0002000900098012843D123480068D4
:1003F00040F01000214908600846006820F007001E
:1004000008600846006840F0020008601A4840682A
:10041000194948600846406848600846406840F40A
:10042000806048600846406820F47C1048600846B8
:10043000406840F4E81048600846006840F080706A
:10044000086000BF0C48006800F000700028F9D078
:100450000948406820F003000749486008464068A2
:1004600040F00200486000BF0348406800F00C0004
:100470000828F9D10CBD0000001002400020024005
:100480007047000010B51348006840F001001149A2
:10049000086008464068104908400E494860084610
:1004A00000680E4908400B4908600846006820F4BF
:1004B000802008600846406820F4FE0048604FF441
:1004C0001F008860FFF767FF4FF000600449086075
:1004D00010BD0000001002400000FFF8FFFFF6FE14
:1004E00008ED00E010B5044604E04FF47A7000F027
:1004F00004F8641E002CF8D110BD014601EBC102C6
:100500000123C3EBC2024FF0E0235A611A469269FD
:100510009A611A46126942F001021A6100BF4FF057
:10052000E022106900F001021AB100F48032002AC2
:10053000F5D04FF0E022126922F001024FF0E023E3
:100540001A611A4692699A617047000043F690203A
:1005500018490880081D008820F48050091D088073
:10056000081D008820F44050091D0880081F0088DD
:1005700020F48060091F08800846008840F02000B1
:1005800008800846008840F00C0008800846008873
:1005900040F40050088008480068084908430649AC
:1005A00008600748006840F020004FF0E021C1F8E3
:1005B00004017047083801400CED00E070A05F00B6
:1005C00004E100E000BFFEE702E008C8121F08C116
:1005D000002AFAD170477047002001E001C1121FC4
:1005E000002AFBD1704710B5044600224C2120465A
:1005F00001F042F910BD10B5044600224D212046FD
:1006000001F03AF910BD10B504462068427B2D2157
:10061000204601F031F910BD10B5044601224C21ED
:10062000204601F029F901224D21204601F024F94C
:100630002046FFF7E8FF10BD10B50446204600F045
:100640001BF82046FFF7DFFF204600F00AF820469F
:1006500000F012F82046FFF7D6FF2046FFF7C3FF51
:1006600010BD10B5044601224C21204601F004F9CA
:100670002046FFF7C8FF10BD10B5044601224D21EA
:10068000204601F0F9F810BD10B5044694F8250095
:1006900040B12046FFF7F0FF2046FFF7B4FF2046A9
:1006A000FFF7DFFF2046FFF7E7FF2046FFF7A3FF36
:1006B0002046FFF7A8FF2046FFF795FF012084F8AA
:1006C000250010BD10B504462046FFF794FF2046D4
:1006D000FFF799FF2046FFF7C4FF2046FFF7CCFF46
:1006E0002046FFF790FF002084F8250010BD70B56C
:1006F00005460C461CB12846FFF7BEFF02E028461F
:10070000FFF779FF2846FFF77EFF2846FFF7A9FF8E
:100710002846FFF768FF70BD70B505460C4604F02B
:1007200080012846FFF7E3FF04F040012846FFF769
:10073000DEFF04F020012846FFF7D9FF04F0100186
:100740002846FFF7D4FF04F008012846FFF7CFFF43
:1007500004F004012846FFF7CAFF04F0020128460E
:10076000FFF7C5FF04F001012846FFF7C0FF284648
:10077000FFF762FF70BDFFF7E5FDFFF7B9FDFFF77B
:10078000E5FE00F003F800BFFEE7000000B5A7B0EB
:1007900002A800F063FB094902A800F054F90848D8
:1007A00040210B460022CDE90010114602A800F0BE
:1007B000F8F802A800F03EF927B000BDC01A000802
:1007C000C018000870B504462068057C94F838000D
:1007D0004543ED002946606BFFF7CDFC70BD7FB54A
:1007E00082B004460A9D94F88C00002863D0BDF8BE
:1007F000140000285FD0BDF8140001281CDD022D74
:100800000CD1BDF80C00BDF81410401A80B2039052
:10081000BDF80C00401C80B203900DE0032D0BD1FD
:10082000BDF81000BDF81410401A80B20490BDF855
:100830001000401C80B2049005F00105C5B9B4F861
:100840004C00BDF81010884201DD06B070BDB4F850
:100850004E00BDF81010884200DCF6E7B4F84A30CC
:10086000B4F8482005A903A800F0E5F9C0B9ECE701
:10087000B4F84800BDF80C10884200DDE5E7B4F894
:100880004A00BDF80C10884200DCDEE7B4F84E30B8
:10089000B4F84C2005A904A800F0CDF900B9D4E7BC
:1008A0000095206BBDF81430BDF81020BDF80C1079
:1008B00086682046B04700BFC7E72DE9FF4F83B0E9
:1008C00004460E461F46DDF8408094F892A0BAF127
:1008D000000F01D1012000E0002002900598401C8B
:1008E00080B20090F01983B231462046059A00F09C
:1008F00084F810B907B0BDE8F08F01254BE098F8F7
:10090000000000EA050B4FF000090DE009F10100BD
:100910001FFA80F9701C86B26806050E15B901250C
:1009200008F10108781E87B2002F13DDBBF1000F1C
:1009300007D198F80000284008B9012008E00020FD
:1009400006E098F80000284008B1012000E00020EF
:100950000028DBD1BBF1000F0CD084F892A000205E
:100960000090A6EB090081B24B462046059AFFF79E
:1009700036FF0FE094F8910060B9029884F8920075
:1009800000200090A6EB090081B24B462046059A54
:10099000FFF725FF00BF002FB1DC84F892A000BF55
:1009A000A8E72DE9F84F8246884615461C46DDE942
:1009B0000A692746F81D87B2FF10A81980B2009077
:1009C00008EB040083B22A464146504600F015F871
:1009D00008B9BDE8F88F0CE023462A464146504648
:1009E000CDF80090FFF769FFB944681C85B2701E0E
:1009F00086B2002EF0DC00BFEBE72DE9F0410446A3
:100A00000D4616461F46DDF81880B4F84E10B4F8AF
:100A10004C004346324600F04FFA10B90020BDE8C2
:100A2000F081B4F84A10B4F848003B462A4600F07A
:100A300043FAF4E710B50446204600F045FB204693
:100A400000F04EFC10BD70B504460D46A06DA842E6
:100A500008D0A565294604F1740000F0C5FA2046C7
:100A600000F068F870BD00000149C16570470000E2
:100A7000350E000810B50446002030342084A084D0
:100A80004FF6FF706084E08454F8300941682046D6
:100A9000884710BD2DE9F04104460D4616461F4615
:100AA000DDF818800020A065E762656384F838608F
:100AB00084F8390000216D200155002074346077DE
:100AC00060760120A077E07744F8448C54F8440C19
:100AD000743C0168204688472046FFF7CBFF20463C
:100AE000FFF7C2FF002170200155BDE8F081000032
:100AF0002DE9FC4107460C4615461E462B460A4A80
:100B00000A493846009600F0FEFB01A800F064FA9E
:100B10008046074B00949DF8042041463846FFF775
:100B2000B9FFBDE8FC8100000D1500084D16000856
:100B3000E90E0008816D01B970478121095C80F8D8
:100B40008E108221095C80F88F1090F88D1099B377
:100B500090F88D10012914D190F98E2090F983100E
:100B60008A4203DA8321095C80F88E1090F98F2085
:100B700090F984108A421FDD8421095C80F88F106F
:100B80001AE090F97E2090F98010114490F98E209F
:100B9000914207DD7E210A5C8021095C114449B243
:100BA00080F88E1090F98F2090F980108A4203DD32
:100BB0008021095C80F88F1000BFBDE738B504467E
:100BC0005034E08800906388A28834F85019204699
:100BD000FFF713FF18B9002084F88C002AE00120E9
:100BE00084F88C00B4F84800B4F85010884203DA56
:100BF000B4F85000A4F84800B4F84A00B4F8521011
:100C0000884203DDB4F85200A4F84A00B4F84C005E
:100C1000B4F85410884203DAB4F85400A4F84C0035
:100C2000B4F84E00B4F85610884203DDB4F856000C
:100C3000A4F84E0038BD70B505460E461446298806
:100C40000A463088104482B2914206DD994203DAA6
:100C50001A46501E82B200E02146994201DB002074
:100C600070BDA24201DC0020FAE7A14200DA214671
:100C70009A4200DD1A462980501A82B23280012041
:100C8000EEE72DE9F84304460E4615461F46DDF80B
:100C90002080E08F281A85B2CDF800803B462A4696
:100CA00031462046D4F82CC0E047BDE8F8832DE952
:100CB000F84305460E4691461F46DDF82080B5F8FC
:100CC0004440A01B84B208F0010010B9E01B84B2BC
:100CD00001E0601E84B23B464A4621462846CDF8D4
:100CE0000080FFF7CEFFBDE8F8832DE9F843044606
:100CF0000D4616461F46DDF820803B463246294603
:100D00002046CDF80080FFF7BCFFBDE8F8832DE951
:100D1000F84F06460F46904699460A9DBA46B6F8E1
:100D20004640A4EB080084B2601E84B2681CC5B2C1
:100D3000022D05D1A4EB090084B2601C84B2002509
:100D40004B465246214630460095FFF79AFFBDE8D4
:100D5000F88F2DE9F84F0646894692461F46DDF882
:100D60002880B6F84650A5EB0A0085B2B6F8444094
:100D7000A4EB090084B2B8F1000F04D1681E85B25B
:100D8000E01B84B206E0B8F1010F03D1601E84B20B
:100D9000E81B85B23B462A4621463046CDF8008006
:100DA000FFF76FFFBDE8F88F2DE9F84F05460E46B7
:100DB00017469846DDF82890BA46B5F84440A01B7F
:100DC00084B2B9F1000F09D1601E84B2A4EB08000F
:100DD00084B2601C84B24FF0010903E0601E84B24B
:100DE0004FF000094346224651462846CDF8009070
:100DF000FFF747FFBDE8F88F2DE9F8430546894620
:100E000016461F46DDF82080B5F84640A01B84B288
:100E100008F0010010B1E01B84B201E0601E84B252
:100E20003B46224649462846CDF80080FFF729FF79
:100E3000BDE8F88301460020704702460A44107856
:100E4000704702460A441078521C4FF6FF7303EABB
:100E500000201378034498B27047000038B5044668
:100E600001211020FFF75EFA14208DF803004FF4E3
:100E7000C050ADF8000003208DF8020069460A4812
:100E8000FFF799F9094B0A4A0A492046FFF730FE55
:100E9000204600F01CFA0021204600F02AFA2046E5
:100EA000FFF790FC38BD000000100140AD170008AE
:100EB000BD130008B821000810B504468A4209DABB
:100EC000A34201DD012010BD9A4201DD0120FAE7B5
:100ED0000020F8E7A34205DD9A4201DD0120F2E798
:100EE0000020F0E70020EEE72DE9F04704468946B0
:100EF000DDF82080D1B201F00701012606FA01FADF
:100F00000AF0FF060027BC4694F892A0BAF1010F40
:100F100000DC374694F892A0BAF1010F00D0B44635
:100F2000154625F00705D4F800A09AF810A00AFB92
:100F300005FA1FFA8AF5606B28444844B8F1000F9F
:100F400014D100BF90F800A04AEA070A80F800A078
:100F500090F800A08AEA0C0A80F800A0401CA3F1D7
:100F6000010A1FFA8AF3002BECD132E000BF90F89F
:100F700000A04AEA070A80F800A090F800A08AEAD8
:100F80000C0A80F800A001F1010A0AF0FF0101F04B
:100F90000701A3F1010A1FFA8AF381B9B4F83AA054
:100FA000504494F892A0BAF1010F00DC012794F8A4
:100FB00092A0BAF1010F0AD04FF0010C07E04FEAFE
:100FC000476A4FEA1A674FEA4C6A4FEA1A6C002BDD
:100FD000CDD1BDE8F0870000014608200870014827
:100FE000704700000800002070B504460D4600213F
:100FF0002846FFF722FF207001212846FFF71DFF3A
:10100000607002212846FFF718FFA07003212846D0
:10101000FFF713FFE07004212846FFF70EFF207151
:1010200005212846FFF709FF607106212846FFF7D2
:1010300004FFA07107212846FFF7FFFEE071082199
:101040002846FFF7FAFE207209212846FFF7F5FE31
:1010500040B260720A212846FFF7EFFE40B2A0724C
:101060000B212846FFF7E9FE40B2E0720C2128462A
:10107000FFF7E3FE40B220730D212846FFF7DDFEA7
:1010800040B260730E212846FFF7D7FE40B2A0732E
:101090000F212846FFF7D1FE40B2E0731021284609
:1010A000FFF7CBFE40B2207411212846FFF7C9FE9E
:1010B000608213212846FFF7C4FEA082152128462E
:1010C000FFF7BFFEE08270BD2DE9F0410446002528
:1010D00094F8387094F83960206890F8118000BF57
:1010E00032462946204600F00AF8681CC5B2701C3A
:1010F000C6B2BD4201DA4645F2DBBDE8F0812DE91A
:10110000F84305460E469146286890F8108034460C
:101110006F6B04FB08F084B24FF6FF7000EAC40462
:10112000274443464A4600212846009700F0B6F877
:10113000BDE8F88310B51A3050F81A2C817F4FF6AD
:10114000FF7303EAC1014184117C03EAC1010184F8
:10115000C17F03EAC1018184817FC37F1A380B44B8
:10116000547CA34204DD537C90F839401B1B99B298
:101170004FF6FF7303EAC10130F83E3F43804388D6
:10118000838083880B448380938AC380D38A0381BE
:101190003E3810BD10B504462046FFF7CBFF10BD0A
:1011A00010B504462046FFF7C5FF2068808AA4F8E2
:1011B00046002068C08AA4F8440010BD10B504465B
:1011C0002046FFF7B7FF10BD10B504462046FFF7D5
:1011D000B1FF2068808AA4F846002068C08AA4F87D
:1011E000440010BD10B50446002040342081A08882
:1011F00060812088A0816088E081403C2046FFF724
:10120000DDFC10BD10B5044634F8400F2081608825
:1012100060810020A081E088E081403C2046FFF70B
:10122000CDFC10BD10B5044600204234E08060883B
:10123000208100206081A08834F84219884205DBB3
:101240004234A0882188401A6081423C4034E088C2
:101250002188401AE081403C2046FFF7AFFC10BDDA
:1012600010B5044600204234E080608834F842190A
:10127000884205DB423460882188401AE080423C85
:101280004034A0882188401A60810020A081E08835
:10129000E081403C2046FFF791FC10BD2DE9FC4168
:1012A00004460D4616461F46DDF820808DF8055091
:1012B0008DF806608DF80470CDF800806B46012231
:1012C0000F212046D4F808C0E047BDE8FC8170B586
:1012D000044600231A460A212046A568A84770BD87
:1012E00070B5044600231A4610212046A568A84779
:1012F00070BD70B504460D4600232A460B212046DA
:10130000A668B04770BD2DE9F04104460D4617466A
:101310001E46DDF81880204600F00AF8A560E76058
:101320002661C4F81480204600F018F8BDE8F0816A
:101330000021016008498160C160016141610021B3
:1013400080F8231080F826108161FF2180F8241096
:1013500080F8281070470000A517000870B50446F3
:1013600000231A4609212046A568A84770BD70B51C
:10137000044600231A46192120462569A84770BD56
:1013800013B5044601AA0121204600F001F81CBD56
:101390002DE9F04104460D46164633462A461721EC
:1013A00020462769B847BDE8F08170B504460023A0
:1013B0001A46182120462569A84770BD2DE9F0413D
:1013C00006460F4614469846182F1BD004DC142FEF
:1013D00013D0172F23D104E0192F1CD0202F1ED19A
:1013E0000FE0454606E029783046FFF795F96D1C79
:1013F000601EC4B2002CF6DC14E03046FFF70CF996
:1014000010E00FE03046FFF73FF996F82410304621
:10141000FFF782F906E03046FFF754F902E00020BA
:10142000BDE8F08100BF0120FAE770B50446002353
:101430001A4619212046E568A84770BD70B50446D4
:101440000D4600232A4616212046E668B04770BDA7
:1014500070B504460D4600232A4615212046E6684D
:10146000B04770BD2DE9F04104460D46164633469F
:101470002A4617212046E768B847BDE8F081F8B54D
:1014800005460C4600BF2678641C182E21D006DCC9
:10149000152E09D0162E08D0172E2CD110E0192E9B
:1014A00018D0FE2E27D11CE000BF2078009000232A
:1014B0009DF8002031462846EF68B847641C1BE0C1
:1014C000207800906A4601212846FFF7CBFF641C74
:1014D00012E000BF00231A4631462846EF68B8479D
:1014E0000AE0207800909DF800202921284600F08D
:1014F000C3F9641C00E0F8BDC5E770B504460023DD
:101500001A4618212046E568A84770BD2DE9F0412C
:1015100004460F4615469846A7F11400062858D2EF
:10152000DFE800F03903181D494D2C48007810B150
:101530002046FFF71CFF2046FFF737FF002120461B
:10154000FFF71EFF29462046FFF71AFF0120234917
:10155000087040E029462046FFF712FF3BE01F4895
:10156000007810B12046FFF702FF464608E03246F9
:101570001821204600F08DF9A5F11800C5B21836E3
:10158000182DF4DC32462946204600F082F900206E
:10159000124908701FE094F82400FF2802D1782037
:1015A00084F8240043462A4639462046D4F810C021
:1015B000E047BDE8F0810020084908700BE00748CB
:1015C000007810B12046FFF7D2FE002003490870D2
:1015D00001E00020EDE700BF0120EAE70000002065
:1015E00070B5044600231A46282120466569A8479D
:1015F00000231A4614212046E568A84701224B2102
:10160000204600F039F9206802792921204600F0AF
:1016100033F900224B21204600F02EF92068027990
:101620002921204600F028F901224B21204600F014
:1016300023F9206842792921204600F01DF970BD68
:1016400001600268927C80F8222070472DE9F04109
:1016500005460C4616461F463B463246214628465E
:1016600000F01EF810B10120BDE8F081092C09D06E
:101670000A2C0CD12846FFF7B3FF07492846FFF78D
:10168000FEFE06E005492846FFF7DAFF01E00020EC
:10169000EAE700BF0120E7E700220008282300084E
:1016A0002DE9F0470446884615461E46B8F10B0F53
:1016B00009D0B8F10D0F11D0B8F10E0F21D0B8F14B
:1016C0000F0F60D12CE025B932492046FFF7D7FE35
:1016D00003E031492046FFF7D2FE57E045B92F49D4
:1016E0002046FFF7CCFE2068807C84F8220007E0CB
:1016F0002B492046FFF7C3FE2068C07C84F82200F7
:1017000044E02046FFF7F9FE81212046FFF7A0FEC6
:1017100029462046FFF792FE2046FFF786FE35E079
:101720002046FFF7EAFE7779F806070E94F82200C4
:101730003844C7B240212046FFF78AFE102040EA15
:1017400027112046FFF784FE07F00F012046FFF720
:1017500075FEB07940F0B0012046FFF76FFE00BF84
:1017600096F80490D6F800A04FEAC960010E5246E0
:101770002046FFF777FE681EC5B2002DF0DC20463C
:10178000FFF753FE02E00020BDE8F08700BF012014
:10179000FAE7000001230008062300080B230008D5
:1017A0001223000810B50446002010BD2DE9F041B9
:1017B00004460E4615461F464D2E36D00CDC2B2E09
:1017C00013D004DC292E1BD02A2E4BD10FE02D2E56
:1017D0001AD04C2E46D11BE0502E33D0512E35D08E
:1017E000522E37D0532E3DD138E000BF3EE00020CE
:1017F00002E000BF411C88B2B0F5A07FF9DB35E004
:101800000120FEF76FFE31E00520FEF776FE2DE0A9
:101810002DB14FF480511748FEF75AFD04E04FF404
:1018200080511448FEF752FD20E02DB14FF40061C5
:101830001048FEF74DFD04E04FF400610D48FEF73F
:1018400045FD13E0002084F827000FE0002084F815
:1018500027000BE0002084F8270007E0002084F830
:10186000270003E0012084F8270000BF00BF01200B
:10187000BDE8F081001001402DE9F04104460D461D
:10188000164600233246294620466769B847BDE818
:10189000F0812DE9F04104460D4616462046FFF73B
:1018A00084FD40212046FFF76BFD33462A46172171
:1018B00020462769B8472046FFF759FDBDE8F0816B
:1018C0000000000000000000000000000000000018
:1018D0000000000000000000000000000000000008
:1018E000000000C000000000000000C00103000074
:1018F000000000E081030000000000E0E3050000BC
:10190000000000E0E3070000000000E0FB0300002F
:10191000000000E0FB0D0000000000F0FF0F0000E1
:10192000000000F0FF461B00000000B0F7EB1D00B8
:10193000000000F07FFD1E00000000FFFF7D1F0083
:101940000000FEFFFFBF0F000080FFFEFFFF0F0043
:1019500000C063FFFFFF0F0000C030FFFFBF0700A4
:1019600000C018FFFFFF070000C01CFFFFFF37008B
:1019700000C00CFEFFFFFF0600C0CCFEFFFFFF070C
:1019800000C0E6FFFFFFFF0100C0B6FFFFFFFF033F
:10199000009E1EFFFFFFFF0180FF1BFFFFFF7F0078
:1019A000C0E10FFFFFFFFF00E0800FFEFFFF3F00E1
:1019B00060800FFEFFFFFF0030008FFFFFFFFF037F
:1019C0003000E7FFFFFFFF0BF00767F8FFFFFF0F97
:1019D000E07F37F0FFFFFF0700FF37E0FFFF1F004A
:1019E000008E3760F8FF0100001C1EC060FF010080
:1019F00000781CC0C0E0010000E019C0C0800100F8
:101A000000C03F70E0E0000000003E3E78F00100C2
:101A10000000F00F3EBC01000000C0F33F8F01004A
:101A2000000080FFFFC300000000003EC0FF000078
:101A3000000000F0013E000000000080FF0F0000E9
:101A400000000061FE000000000080E3810103004F
:101A500000C09FFB8107030000F0DBFFC00703000D
:101A6000007CDD77C0E73F00009CCD30CCF83F0024
:101A70000080E73FCE9901000080E73F86810100AA
:101A800000C0C1788783010000C001588FC30100E6
:101A900000C000180FC7000000E0001C00CE0000CE
:101AA0000060000C000800000000000000000000C2
:101AB0000000000000000000000000000000000026
:101AC000E00002020403020405080700FF04FF050A
:101AD000FF00E201D506D92005005102210641513F
:101AE000A20222072397925400230A55CF560D5580
:101AF0000D5501240B65CF9AC7C8688C1C012506BB
:101B000044B1127B260954B11653ACD208270521E3
:101B100057222807626FA69A012908626F1253A5FF
:101B2000002A06227332022B0733919656022C05A7
:101B3000214F222D051393322E051151122F0744E8
:101B4000B11EDB003008439132921A013106427116
:101B5000B60A3207439132531A33074391B2F2085F
:101B60003408439112D388013507439132F4083683
:101B700007439132E218370743913253093807433C
:101B80009172A41139074391728E003A0631519235
:101B9000023B06414F92043C06327126033D063358
:101BA00091B2073E0732711215003F074271A272CF
:101BB00000400844B132D41E01410844B1A6E29865
:101BC00001420844B1B2861C024307439136B30078
:101BD000440844B1B2A21C09450844B172A43C02B5
:101BE000460844B132F4CA00470844B132741A03BB
:101BF000480844B112C794014906415132024A07CC
:101C0000439132E3024B0844B112478A324C0743F6
:101C10009112CB014D0845D192D74A3A4E0844B1B2
:101C200012979A014F0844B1A6A24C0A500844B139
:101C3000B2E24819510A45D132524C31AD00520737
:101C400044B1F22A03530844B136341A0A54074304
:101C500091B26205550744B112CD21560844B11224
:101C6000CDA400570945D19255525D0058074391C4
:101C700092CA54590844B112871E025A0844B1321C
:101C80006239025B07626FB25A025C0944B1925139
:101C90004619055D07626FA25A035E062397D600B8
:101CA0005F0614AF32026006227712036106339199
:101CB00076046208439112555A0063063271B204E9
:101CC000640743919A56126507339132D20266082F
:101CD00043919AD24A006707438F722601680843EE
:101CE00091125552016906415192046A07526F964A
:101CF00093026B07439112D32A6C06415132026D55
:101D00000835D1A25AAA006E073391A2920A6F0732
:101D1000339132D2087008438FA2D28A00710743F0
:101D20008FB6920C72073271B2120073073391A60C
:101D30009202740743919656147507339192D40812
:101D400076073391925405770835D192551700786C
:101D5000063391923A7908438F92461C017A0733F1
:101D60009122A3007B08638FA6CA1C057C05614FE6
:101D7000727D09638F22734C49017E0724B7965404
:101D8000027F0854B132A439048005005102810851
:101D90005391927252238208639156C3A10683081D
:101DA0006391D64647008408539192323A028508DF
:101DB000639196333A0286086391D6B94600870745
:101DC000426FB2460088076391D61E6A8908539114
:101DD00092F250038A08639196F350038B08439163
:101DE00092328A098C085331D74631018D075271DE
:101DF00012730A8E0954B112938A63068F0A64B172
:101E0000A6625271CC00900964B15A8E91F2089189
:101E10000835D136941A02920A48313F649A23E772
:101E20001193086391D61E69049408539192F24865
:101E3000239509639192331A690496086391D64EEB
:101E40006A0497086391962B35029809638F927202
:101E50001A3109990A54B112938A3229009A095405
:101E6000B112338A72089B050091029C0500910211
:101E70009D050091029E050091029F05009102A020
:101E800008639156E33502A1075271A65302A209D5
:101E900063919A321A6904A30963919A324A6A04D7
:101EA000A40A649196548632B500A50964B196548B
:101EB000B9D40CA6065151A204A708638F32E29848
:101EC00023A80614B91203A90F772F3754866AA9DD
:101ED000AC9686692800AA05003103AB073391361A
:101EE000A200AC0623933203AD05003103AE0E779A
:101EF0002F3754866A99AAD2300D05AF0614B9322D
:101F000002B007339532D208B107433197561AB25F
:101F100007339522A300B3063275A206B4062277D2
:101F2000A600B508432F93D49000B60A56EF36AEFC
:101F3000B472CA29B705917312B805003103B90606
:101F40003275A20ABA07339532D208BB0733912201
:101F50004702BC0E670FA3639D324C398E8C120072
:101F6000BD0D670FA3639D324C32A78C04BE0E6774
:101F70002FA363A9324C398E8C1200BF0500910249
:101F8000C00A64B196515471CC00C10964B15AAB16
:101F9000386600C20A64B1A6625271CC00C30A64FA
:101FA000B196545471CC00C40954B112938A63069B
:101FB000C50964B1A6B18A6306C60A48313F649A6E
:101FC00023E711C70954AF32F4885101C80A64B13C
:101FD00096511A23E511C90964B15A8E91F208CAC3
:101FE0000A64B1A6E2182A8F00CB0A64B112331A30
:101FF00023E511CC07627112550BCD076271265390
:1020000003CE076391D6D902CF08539192CA160026
:10201000D00845D176956901D10964B1965486718D
:1020200019D20A64B1965154512605D30964B15AA4
:10203000AB289302D40A64B1A66252512605D50A90
:1020400064B1965454512605D60A54B112938A327B
:102050002900D7063391923AD80C66EF0EE34C5222
:10206000C5992100D90964B19651690E01DA086455
:10207000B1DA348700DB0A64B1A66246510E01DC96
:102080000954B112338A7208DD0864B1DA1C7A0887
:10209000DE0A64AF925794236500DF08538FA25481
:1020A0005A11E008639196333A02E108639156E3CE
:1020B0003502E2086391D6464700E30A64919654DC
:1020C000C6AA5A00E408539192323A02E508639195
:1020D000D6B94600E60835D136941A02E707426FB2
:1020E000B24600E808639196F3480BE909639156FC
:1020F000C3911600EA086391D61E6901EB0853915B
:1021000092F2480BEC07527112730AED075271A656
:102110005302EE085391D6463101EF0843919232B3
:102120008A09F00A64B126354A232605F10A64912A
:1021300096548632B500F208639196F34823F3096A
:10214000639156C3914600F4086391D61E6904F565
:102150000A6491965486AB5A00F608539192F2485D
:1021600023F708539196D14609F80A55CF8ED24CE1
:10217000716504F9086391962B3502FA096391564B
:10218000C3A44600FB086391D64E6A04FC08539131
:1021900092725223FD09738F56C3346212FE0853A4
:1021A0008F12555A11FF09638F92721A310900007C
:1021B0000004FFFF0000000095110008E511000871
:1021C000EB0C0008A1110008051200080F0D000813
:1021D000BD11000825120008530D0008C9110008A0
:1021E00061120008A90D000895110008E51100080A
:1021F000AF0C000895110008E5110008F90D000862
:102200001815AE15D5168015A8163F15D31600154E
:1022100040158D16141520160015A115C815DA16CF
:1022200012158116CF15D916F115DB1640152E158E
:10223000A415A619FF1815AE15D5168015A8163FBA
:1022400015D316001540158D16141520160015A16E
:1022500015C815DA1612158116EF15D916A115DB5A
:102260001600152E15A415A619FF1815AE15D516AE
:102270008015A8163F15D316001540158D16141598
:1022800020160015A115C815DA1602158116CF15EE
:10229000D916F115DB1640152E15A415A619FF1831
:1022A00015AE15A415D5165015A8163F15D3160052
:1022B000154015AD168B15D9162215DB16351532BE
:1022C000158116FF15A615DA161219FF1815AE1589
:1022D000D5168015A8163F15D316001540158D1676
:1022E000141520160015A115C015DA161215811641
:1022F000CF15D916F115DB1640152E15A415A61904
:10230000FF1815AF19FF1815AE19FF1815A115C83C
:1023100019FF1815A015C019FF1815A115C019FF30
:102320001815A015C819FF000001140A64643232A0
:1023300000127A0000042896100800008000400077
:102340000001140A6464323200093D00000428963A
:1023500010080202800040007823000800000020DE
:1023600008000000C80500088023000808000020BD
:1023700000080000D8050008000000000000000070
:0400000508000131BD
:00000001FF
