:020000040800F2
:1000000060060020B101000809050008CD030008C2
:10001000050500086B020008AD070008000000009D
:100020000000000000000000000000007D05000846
:100030006F020008000000000B05000869060008B8
:10004000CB010008CB010008CB010008CB01000860
:10005000CB010008CB010008CB010008CB01000850
:10006000CB010008CB010008CB010008CB01000840
:10007000CB010008CB010008CB010008CB01000830
:10008000CB010008CB010008CB010008CB01000820
:10009000CB010008CB010008CB010008CB01000810
:1000A000CB010008CB010008CB010008CB01000800
:1000B000CB010008CB010008CB010008CB010008F0
:1000C000CB010008CB010008CB010008CB010008E0
:1000D000CB010008CB010008CB010008CB010008D0
:1000E000CB010008CB010008CB010008CB010008C0
:1000F000CB010008CB010008CB010008CB010008B0
:10010000CB010008CB010008CB010008CB0100089F
:10011000CB010008CB010008CB010008CB0100088F
:10012000CB010008CB010008CB010008CB0100087F
:1001300000F002F800F02CF80AA090E8000C8244CD
:100140008344AAF10107DA4501D100F021F8AFF2AA
:10015000090EBAE80F0013F0010F18BFFB1A43F0A5
:1001600001031847800600009006000000230024C9
:1001700000250026103A28BF78C1FBD8520728BFB7
:1001800030C148BF0B6070471FB51FBD10B510BD13
:1001900000F031F81146FFF7F7FF00F009FB00F01F
:1001A0004FF803B4FFF7F2FF03BC00F057F800006C
:1001B0000948804709480047FEE7FEE7FEE7FEE7FB
:1001C000FEE7FEE7FEE7FEE7FEE7FEE70448054937
:1001D000054A064B704700006D0600083101000813
:1001E0006000002060060020600200206002002005
:1001F000704770477047754600F02CF8AE46050012
:100200006946534620F00700854618B020B5FFF731
:10021000DDFFBDE820404FF000064FF000074FF033
:1002200000084FF0000B21F00701AC46ACE8C00914
:10023000ACE8C009ACE8C009ACE8C0098D4670471D
:1002400010B50446AFF300802046BDE81040FFF72C
:10025000A8BF000000487047000000200149182096
:10026000ABBEFEE726000200704700BFFEE7704706
:100270002DE9F0410246002500260020002300243D
:10028000002791F803C00CF00F0591F803C00CF0A3
:10029000100CBCF1000F03D091F802C04CEA050528
:1002A00091F800C0BCF1000F31D0146800202BE0A1
:1002B0004FF0010C0CFA00F3B1F800C00CEA030691
:1002C0009E4220D183004FF00F0C0CFA03F7BC4381
:1002D00005FA03FC4CEA040491F803C0BCF1280FB2
:1002E00006D14FF0010C0CFA00FCC2F814C00AE071
:1002F00091F803C0BCF1480F05D14FF0010C0CFA86
:1003000000FCC2F810C0401C0828D1D31460B1F81A
:1003100000C0BCF1FF0F34DD546800202EE000F176
:10032000080C4FF0010808FA0CF3B1F800C00CEA11
:1003300003069E4221D183004FF00F0C0CFA03F705
:10034000BC4305FA03FC4CEA040491F803C0BCF179
:10035000280F05D100F1080C08FA0CF8C2F8148037
:1003600091F803C0BCF1480F07D100F1080C4FF021
:10037000010808FA0CF8C2F81080401C0828CED3F7
:100380005460BDE8F0814161704701617047000031
:100390000348806940F0040001498861704700000B
:1003A0000010024000B5FFF7F3FF074800686FF345
:1003B0000B00054908600846006840F29141084377
:1003C0000149086000BD00000408014000BFFEE7CD
:1003D00008B50121102000F099F814208DF80300D1
:1003E0004FF4C050ADF8000003208DF802006946BC
:1003F0000148FFF73DFF08BD0010014010B54FF464
:1004000080510948FFF7BFFF4FF400610648FFF72E
:10041000BAFF4FF480510448FFF7B7FF4FF4006173
:100420000148FFF7B2FF10BD0010014010B54FF4B6
:1004300080510948FFF7A9FF4FF400610648FFF714
:10044000A4FF4FF400610448FFF79DFF4FF4805173
:100450000148FFF798FF10BD0010014010B54FF4A0
:1004600000610948FFF78FFF4FF480510648FFF7FE
:100470008CFF4FF400610448FFF787FF4FF4805171
:100480000148FFF780FF10BD0010014070B5054620
:100490000C46FFF7CBFF782000F010F8FFF7AEFF17
:1004A000284600F00BF8FFF7A9FF204600F006F8F9
:1004B000FFF7A4FFFFF7D2FF70BD000070B5044640
:1004C00000251AE04FF480510D48FFF75CFFE0096A
:1004D00028B14FF400610A48FFF757FF04E04FF4DA
:1004E00000610748FFF74FFF6006040E4FF480518C
:1004F0000348FFF74AFF681CC5B2082DE2DB70BD58
:100500000010014000BFFEE77047704729B1064A5E
:1005100092690243044B9A6104E0034A9269824360
:10052000014B9A61704700000010024012480068B9
:1005300040F48030104908600846006840F0807040
:100540000860002048600846406840F002004860AB
:100550000846406840F4803048600846406840F4EF
:10056000806048604FF0E020006940F004004FF0E8
:10057000E02108617047000000100240704710B58C
:1005800000F002F810BD00000CB5002001900090B2
:100590003348006840F480303149086000BF30487B
:1005A000006800F4003000900198401C0190009811
:1005B00018B90198B0F5A06FF1D12948006800F48E
:1005C000003010B10120009001E000200090009860
:1005D000012843D12348006840F0100021490860F9
:1005E0000846006820F0070008600846006840F0F0
:1005F000020008601A484068194948600846406887
:1006000048600846406840F480604860084640689A
:1006100020F47C1048600846406840F4E8104860C8
:100620000846006840F08070086000BF0C48006811
:1006300000F000700028F9D00948406820F003005D
:10064000074948600846406840F00200486000BF23
:100650000348406800F00C000828F9D10CBD0000E8
:1006600000100240002002407047000010B51348FF
:10067000006840F0010011490860084640681049D0
:1006800008400E494860084600680E4908400B497A
:1006900008600846006820F480200860084640682A
:1006A00020F4FE0048604FF41F008860FFF767FFEA
:1006B0004FF000600449086010BD000000100240C7
:1006C0000000FFF8FFFFF6FE08ED00E010B504465D
:1006D00004E04FF47A7000F004F8641E002CF8D1A6
:1006E00010BD014601EBC1020123C3EBC2024FF072
:1006F000E0235A611A4692699A611A46126942F0D9
:1007000001021A6100BF4FF0E022106900F00102FF
:100710001AB100F48032002AF5D04FF0E0221269BD
:1007200022F001024FF0E0231A611A4692699A61A1
:10073000704700004FF4EA5018490880081D0088EF
:1007400020F48050091D0880081D008820F44050C6
:10075000091D0880081F008820F48060091F088098
:100760000846008840F0200008800846008840F0D5
:100770000C0008800846008840F4005008800848B3
:10078000006808490843064908600748006840F0C7
:1007900020004FF0E021C1F8040170470838014003
:1007A0000CED00E070A05F0004E100E000BFFEE798
:1007B000FFF7F8FDFFF7BAFEFFF7BCFFFFF708FEF3
:1007C000AE210020FFF762FE05210020FFF75EFE4C
:1007D0004FF47A70FFF77AFFAF210020FFF756FE43
:1007E00000BFFEE7F40700080000002060060000DC
:0407F0006C01000890
:0400000508000131BD
:00000001FF
