:020000040800F2
:1000000078060020B1010008F5030008A1030008EC
:10001000F10300086B020008190600080000000048
:100020000000000000000000000000004D04000877
:100030006F02000800000000F703000865050008D3
:10004000CB010008CB010008CB010008CB01000860
:10005000CB010008CB010008CB010008CB01000850
:10006000CB010008CB010008CB010008CB01000840
:10007000CB010008CB010008CB010008CB01000830
:10008000CB010008CB010008CB010008CB01000820
:10009000CB010008CB010008CB010008CB01000810
:1000A000CB010008CB010008CB010008CB01000800
:1000B000CB010008CB010008CB010008CB010008F0
:1000C000CB010008CB010008CB010008CB010008E0
:1000D000CB010008CB010008CB010008CB010008D0
:1000E000CB010008CB010008CB010008CB010008C0
:1000F000CB010008CB010008CB010008CB010008B0
:10010000CB010008CB010008CB010008CB0100089F
:10011000CB010008CB010008CB010008CB0100088F
:10012000CB010008CB010008CB010008CB0100087F
:1001300000F002F800F02CF80AA090E8000C8244CD
:100140008344AAF10107DA4501D100F021F8AFF2AA
:10015000090EBAE80F0013F0010F18BFFB1A43F0A5
:1001600001031847C8040000D8040000002300243D
:1001700000250026103A28BF78C1FBD8520728BFB7
:1001800030C148BF0B6070471FB51FBD10B510BD13
:1001900000F031F81146FFF7F7FF00F03FFA00F0EA
:1001A0004FF803B4FFF7F2FF03BC00F057F800006C
:1001B0000948804709480047FEE7FEE7FEE7FEE7FB
:1001C000FEE7FEE7FEE7FEE7FEE7FEE70448054937
:1001D000054A064B70470000690500083101000818
:1001E00078000020780600207802002078020020A5
:1001F000704770477047754600F02CF8AE46050012
:100200006946534620F00700854618B020B5FFF731
:10021000DDFFBDE820404FF000064FF000074FF033
:1002200000084FF0000B21F00701AC46ACE8C00914
:10023000ACE8C009ACE8C009ACE8C0098D4670471D
:1002400010B50446AFF300802046BDE81040FFF72C
:10025000A8BF000000487047140000200149182082
:10026000ABBEFEE726000200704700BFFEE7704706
:100270002DE9F0410246002500260020002300243D
:10028000002791F803C00CF00F0591F803C00CF0A3
:10029000100CBCF1000F03D091F802C04CEA050528
:1002A00091F800C0BCF1000F31D0146800202BE0A1
:1002B0004FF0010C0CFA00F3B1F800C00CEA030691
:1002C0009E4220D183004FF00F0C0CFA03F7BC4381
:1002D00005FA03FC4CEA040491F803C0BCF1280FB2
:1002E00006D14FF0010C0CFA00FCC2F814C00AE071
:1002F00091F803C0BCF1480F05D14FF0010C0CFA86
:1003000000FCC2F810C0401C0828D1D31460B1F81A
:1003100000C0BCF1FF0F34DD546800202EE000F176
:10032000080C4FF0010808FA0CF3B1F800C00CEA11
:1003300003069E4221D183004FF00F0C0CFA03F705
:10034000BC4305FA03FC4CEA040491F803C0BCF179
:10035000280F05D100F1080C08FA0CF8C2F8148037
:1003600091F803C0BCF1480F07D100F1080C4FF021
:10037000010808FA0CF8C2F81080401C0828CED3F7
:100380005460BDE8F0810246002093680B400BB139
:10039000012000E000207047416170470161704713
:1003A00000BFFEE710B54FF400610248FFF7EBFF16
:1003B00010BD00000010014010B504464FF48051FC
:1003C0000148FFF7EBFF10BD0010014010B50446D7
:1003D0002CB14FF400610548FFF7E0FF04E04FF453
:1003E00000610248FFF7D8FF10BD00000010014077
:1003F00000BFFEE77047704729B1064A9269024381
:10040000044B9A6104E0034A92698243014B9A616A
:10041000704700000010024010B5044606482060F6
:100420000648A0600648E060064860600648206113
:100430002068804710BD000039050008CD03000882
:10044000B9030008A5030008C9050008704710B5E6
:1004500000F002F810BD00000CB5002001900090E3
:100460003348006840F480303149086000BF3048AC
:10047000006800F4003000900198401C0190009842
:1004800018B90198B0F5A06FF1D12948006800F4BF
:10049000003010B10120009001E000200090009891
:1004A000012843D12348006840F01000214908602A
:1004B0000846006820F0070008600846006840F021
:1004C000020008601A4840681949486008464068B8
:1004D00048600846406840F48060486008464068CC
:1004E00020F47C1048600846406840F4E8104860FA
:1004F0000846006840F08070086000BF0C48006843
:1005000000F000700028F9D00948406820F003008E
:10051000074948600846406840F00200486000BF54
:100520000348406800F00C000828F9D10CBD000019
:10053000001002400020024008B501211020FFF702
:100540005BFF14208DF803004FF4C050ADF800009D
:1005500003208DF8020069460148FFF789FE08BDB7
:10056000001001407047000010B51348006840F0CB
:1005700001001149086008464068104908400E49CA
:100580004860084600680E4908400B490860084664
:10059000006820F4802008600846406820F4FE00CF
:1005A00048604FF41F008860FFF751FF4FF0006074
:1005B0000449086010BD0000001002400000FFF870
:1005C000FFFFF6FE08ED00E0014601EBC10201234A
:1005D000C3EBC2024FF0E0235A611A4692699A6156
:1005E0001A46126942F001021A6100BF4FF0E02280
:1005F000106900F001021AB100F48032002AF5D02F
:100600004FF0E022126922F001024FF0E0231A615C
:100610001A4692699A61704700BFFEE710B502481A
:10062000FFF7FAFE002010BD000000203C06000885
:0C06300000000020780600006C010008AB
:0400000508000131BD
:00000001FF
