:020000040800F2
:1000000060060020B10100089D0300089503000868
:10001000990300086B020008410500080000000079
:10002000000000000000000000000000F1030008D4
:100030006F020008000000009F030008DD040008B4
:10004000CB010008CB010008CB010008CB01000860
:10005000CB010008CB010008CB010008CB01000850
:10006000CB010008CB010008CB010008CB01000840
:10007000CB010008CB010008CB010008CB01000830
:10008000CB010008CB010008CB010008CB01000820
:10009000CB010008CB010008CB010008CB01000810
:1000A000CB010008CB010008CB010008CB01000800
:1000B000CB010008CB010008CB010008CB010008F0
:1000C000CB010008CB010008CB010008CB010008E0
:1000D000CB010008CB010008CB010008CB010008D0
:1000E00071020008CB010008CB010008CB01000819
:1000F000CB010008CB010008CB010008CB010008B0
:10010000CB010008CB010008CB010008CB0100089F
:10011000CB010008CB010008CB010008CB0100088F
:10012000CB010008CB010008CB010008CB0100087F
:1001300000F002F800F02CF80AA090E8000C8244CD
:100140008344AAF10107DA4501D100F021F8AFF2AA
:10015000090EBAE80F0013F0010F18BFFB1A43F0A5
:1001600001031847F00300000004000000230024EE
:1001700000250026103A28BF78C1FBD8520728BFB7
:1001800030C148BF0B6070471FB51FBD10B510BD13
:1001900000F031F81146FFF7F7FF00F0D3F900F057
:1001A0004FF803B4FFF7F2FF03BC00F057F800006C
:1001B0000948804709480047FEE7FEE7FEE7FEE7FB
:1001C000FEE7FEE7FEE7FEE7FEE7FEE70448054937
:1001D000054A064B70470000E104000831010008A1
:1001E0006000002060060020600200206002002005
:1001F000704770477047754600F02CF8AE46050012
:100200006946534620F00700854618B020B5FFF731
:10021000DDFFBDE820404FF000064FF000074FF033
:1002200000084FF0000B21F00701AC46ACE8C00914
:10023000ACE8C009ACE8C009ACE8C0098D4670471D
:1002400010B50446AFF300802046BDE81040FFF72C
:10025000A8BF000000487047000000200149182096
:10026000ABBEFEE726000200704700BFFEE7704706
:100270000748006840F0010048B14FF400500549BC
:1002800008600548C06880F004000349C8607047F2
:1002900008080140140401400010014013480068A0
:1002A00013490843114908601248006840F48070FF
:1002B0004FF0E021C1F804010F484069010C090426
:1002C0000D484161406940F020010B4841610B48F5
:1002D000006840F400500949086008480830006888
:1002E00040F4005005490831086070470CED00E00B
:1002F0007000FA0504E100E0000001400004014044
:100300000848806940F01000064988610846806905
:1003100040F0040088610846806940F0010088616F
:10032000704700000010024000B5FFF7E9FF1748D2
:10033000006820F47F40154908600846006840F4D2
:10034000885008600846406820F4702048600846DD
:10035000406840F4002048600846C06860F40050DF
:10036000C8600B48006820F00F0009490860084683
:10037000006840F00800086005480C30006860F034
:10038000010003490C31086000BD0000001001406D
:100390000008014000BFFEE700BFFEE7704770475E
:1003A0001248006840F48030104908600846006830
:1003B00040F080700860002048600846406840F0C7
:1003C000020048600846406840F4803048600846B3
:1003D000406840F4806048604FF0E020006940F0E1
:1003E00004004FF0E0210861704700000010024057
:1003F000704710B500F002F810BD00000CB50020E9
:10040000019000903348006840F480303149086022
:1004100000BF3048006800F4003000900198401C94
:100420000190009818B90198B0F5A06FF1D1294852
:10043000006800F4003010B10120009001E00020BD
:1004400000900098012843D12348006840F0100034
:10045000214908600846006820F007000860084647
:10046000006840F0020008601A4840681949486076
:100470000846406848600846406840F4806048602C
:100480000846406820F47C1048600846406840F404
:10049000E81048600846006840F08070086000BFBF
:1004A0000C48006800F000700028F9D00948406846
:1004B00020F00300074948600846406840F0020009
:1004C000486000BF0348406800F00C000828F9D1DC
:1004D0000CBD0000001002400020024070470000E8
:1004E00010B51348006840F0010011490860084643
:1004F0004068104908400E494860084600680E49A7
:1005000008400B4908600846006820F48020086015
:100510000846406820F4FE0048604FF41F008860E1
:10052000FFF767FF4FF000600449086010BD00004E
:10053000001002400000FFF8FFFFF6FE08ED00E0AB
:1005400000BFFEE7FFF72CFFFFF7EEFEFFF7A6FE6A
:1005500000BFFEE764050008000000206006000000
:040560006C01000822
:0400000508000131BD
:00000001FF
