:020000040800F2
:1000000060060020B10100080D0500080505000884
:10001000090500086B0200086507000800000000E1
:10002000000000000000000000000000C9050008FA
:100030006F0200080000000095050008B5060008E2
:10004000CB010008CB010008CB010008CB01000860
:10005000CB010008CB01000871020008CB010008A9
:10006000CB010008CB010008CB010008CB01000840
:10007000CB010008CB010008CB010008CB01000830
:10008000CB010008CB010008CB010008CB01000820
:10009000CB010008CB010008CB010008CB01000810
:1000A000CB010008CB010008CB010008CB01000800
:1000B000CB010008CB010008CB010008CB010008F0
:1000C000CB010008CB010008CB010008CB010008E0
:1000D000CB010008CB010008CB010008CB010008D0
:1000E000CB010008CB010008CB010008CB010008C0
:1000F000CB010008CB010008CB010008CB010008B0
:10010000CB010008CB010008CB010008CB0100089F
:10011000CB010008CB010008CB010008CB0100088F
:10012000CB010008CB010008CB010008CB0100087F
:1001300000F002F800F02CF80AA090E8000C8244CD
:100140008344AAF10107DA4501D100F021F8AFF2AA
:10015000090EBAE80F0013F0010F18BFFB1A43F0A5
:1001600001031847140600002406000000230024A1
:1001700000250026103A28BF78C1FBD8520728BFB7
:1001800030C148BF0B6070471FB51FBD10B510BD13
:1001900000F031F81146FFF7F7FF00F0E5FA00F044
:1001A0004FF803B4FFF7F2FF03BC00F057F800006C
:1001B0000948804709480047FEE7FEE7FEE7FEE7FB
:1001C000FEE7FEE7FEE7FEE7FEE7FEE70448054937
:1001D000054A064B7047000005070008310100087A
:1001E0006000002060060020600200206002002005
:1001F000704770477047754600F02CF8AE46050012
:100200006946534620F00700854618B020B5FFF731
:10021000DDFFBDE820404FF000064FF000074FF033
:1002200000084FF0000B21F00701AC46ACE8C00914
:10023000ACE8C009ACE8C009ACE8C0098D4670471D
:1002400010B50446AFF300802046BDE81040FFF72C
:10025000A8BF000000487047000000200149182096
:10026000ABBEFEE726000200704700BFFEE7704706
:1002700010B50648006880F48070044908600A20C0
:1002800000F019FA012000F003F810BD0C0801403D
:10029000014908607047000014040140002123490F
:1002A0008279002A3AD00A46126803689A430B46BC
:1002B0001A600A1D126803689A430B1D1A600279BE
:1002C00011440A6803681A430A60184A083212681F
:1002D00003689A43154B08331A601A1D12680368A5
:1002E0009A43124B0C331A604279102A0ED11A1F0E
:1002F000126803681A430D4B08331A601A1D1268FE
:1003000003681A43094B0C331A600DE00749427920
:1003100011440A6803681A430A6005E0027911442F
:100320000A6803689A430A607047000000040140AD
:100330000EB54FF4E06000F023F906208DF80800B8
:1003400000208DF80A0001208DF80B0002A800F0B3
:10035000DFF8012000908DF8060000208DF80400E1
:1003600008208DF805006846FFF798FF0EBD2DE9BF
:10037000F04102460025002600200023002400272B
:1003800091F803C00CF00F0591F803C00CF0100CAD
:10039000BCF1000F03D091F802C04CEA050591F8BA
:1003A00000C0BCF1000F31D0146800202BE04FF0EA
:1003B000010C0CFA00F3B1F800C00CEA03069E42EF
:1003C00020D183004FF00F0C0CFA03F7BC4305FA61
:1003D00003FC4CEA040491F803C0BCF1280F06D1D9
:1003E0004FF0010C0CFA00FCC2F814C00AE091F8BE
:1003F00003C0BCF1480F05D14FF0010C0CFA00FC12
:10040000C2F810C0401C0828D1D31460B1F800C055
:10041000BCF1FF0F34DD546800202EE000F1080C21
:100420004FF0010808FA0CF3B1F800C00CEA03061B
:100430009E4221D183004FF00F0C0CFA03F7BC430E
:1004400005FA03FC4CEA040491F803C0BCF1280F40
:1004500005D100F1080C08FA0CF8C2F8148091F8E4
:1004600003C0BCF1480F07D100F1080C4FF00108A0
:1004700008FA0CF8C2F81080401C0828CED354604B
:10048000BDE8F0810848806940F020000649886195
:100490000846806940F0040088610846806940F0A1
:1004A00001008861704700000010024008B5FFF7A6
:1004B000E9FF1248006820F00F0010490860084664
:1004C000006840F0010008600D48006820F470608A
:1004D0000B4908600846006840F4807008600120FD
:1004E000ADF8000028208DF8030003208DF80200ED
:1004F00069460248001FFFF73AFF08BD04080140A3
:100500000014014000BFFEE700BFFEE77047000097
:1005100070B5002100230F22C47804B3154C246861
:1005200004F4E064C4F5E064210AC1F10403CA40A4
:10053000447804FA03F184781440214309010E4CF5
:100540000678A155047804F01F050124AC40057815
:100550006D11AD0005F1E025C5F8004109E0047812
:1005600004F01F050124AC40044D0678761145F8CF
:10057000264070BD0CED00E000E400E080E100E00A
:1005800002490143024A1160704700000000FA0569
:100590000CED00E0704700000A48006840F480302D
:1005A00008490860002048600846406840F00100A3
:1005B00048604FF0E020006940F004004FF0E02177
:1005C0000861704700100240704710B500F002F853
:1005D00010BD00000CB50020019000903348006869
:1005E00040F480303149086000BF3048006800F4B2
:1005F000003000900198401C0190009818B90198B3
:10060000B0F5A06FF1D12948006800F4003010B1B6
:100610000120009001E0002000900098012843D1C3
:100620002348006840F0100021490860084600682F
:1006300020F0070008600846006840F002000860EB
:100640001A484068194948600846406848600846AA
:10065000406840F4806048600846406820F47C10A0
:1006600048600846406840F4E81048600846006862
:1006700040F08070086000BF0C48006800F0007017
:100680000028F9D00948406820F003000749486075
:100690000846406840F00200486000BF03484068D8
:1006A00000F00C000828F9D10CBD00000010024039
:1006B00000200240704701460122C2EBC1024FF008
:1006C000E0235A611A4692699A611A46126942F009
:1006D00001021A6100BF4FF0E022106900F0010230
:1006E0001AB100F48032002AF5D04FF0E0221269EE
:1006F00022F001024FF0E0231A611A4692699A61D2
:100700007047000010B51348006840F0010011491F
:10071000086008464068104908400E49486008468D
:1007200000680E4908400B4908600846006820F43C
:10073000802008600846406820F4FE0048604FF4BE
:100740001F008860FFF741FF4FF000600449086018
:1007500010BD0000001002400000FFF8FFFFF6FE91
:1007600008ED00E000BFFEE7FFF716FFFFF79EFE73
:10077000FFF7DEFD00BFFEE788070008000000204D
:08078000600600006C01000896
:0400000508000131BD
:00000001FF
